:020000040800F2
:1000000000800120213F00087503000877030008E5
:10001000790300087B0300087D030008000000004E
:100020000000000000000000000000007F03000846
:100030008103000800000000830300088503000816
:10004000713F0008713F0008713F0008713F0008D0
:10005000713F0008713F0008713F0008713F0008C0
:10006000713F0008713F0008713F0008713F0008B0
:10007000713F0008713F0008713F0008713F0008A0
:10008000713F0008713F0008713F0008713F000890
:10009000713F0008713F0008713F0008713F000880
:1000A000713F0008713F0008713F0008713F000870
:1000B0008D030008713F0008713F0008713F000880
:1000C000713F0008713F0008713F0008713F000850
:1000D000713F0008713F00089D030008713F000850
:1000E000713F0008713F0008713F0008713F000830
:1000F000713F0008713F0008713F0008AD03000820
:10010000713F0008713F0008713F0008713F00080F
:10011000713F0008713F0008713F0008713F0008FF
:10012000713F0008713F0008713F0008713F0008EF
:10013000713F0008713F0008713F0008713F0008DF
:10014000713F0008713F0008713F0008713F0008CF
:10015000713F0008713F0008713F0008713F0008BF
:10016000713F0008713F0008713F0008713F0008AF
:10017000713F0008713F0008713F00080000000057
:08018000713F0008713F000807
:1001900001F0FF01102A2BDB10F0070F08D010F838
:1001A000013B013A8B422DD010F0070F42B3F6D13C
:1001B000F0B441EA012141EA014122F007047FF055
:1001C00000070023F0E80256083C85EA010586EAAC
:1001D000010685FA47F5A3FA87F586FA47F6A5FAE8
:1001E00087F68EB9EED1F0BC01F0FF0102F00702F4
:1001F00032B110F8013B013A83EA010313B1F8D19F
:100200000020704701387047002D06BF354603387F
:10021000073815F0010F07D1013015F4807F02BFB8
:10022000013015F4C03F0130F0BC0138704700BF09
:1002300053B94AB9002908BF00281CBF4FF0FF314D
:100240004FF0FF3000F00CB8ADF1080C6DE904CEB2
:1002500004F0FEFADDF804E0DDE9022304B07047A3
:10026000704700BF10B5054C237833B9044B13B168
:100270000448AFF300800123237010BD78000020F4
:1002800000000000CC4A000808B5034B1BB103492D
:100290000348AFF3008008BD000000007C00002090
:1002A000CC4A000872B6FEE700B597B044220021A0
:1002B00005A803F083FE00230093019302930393A8
:1002C00004934FF4007002F045FD20BB0223059318
:1002D0004FF480720892102209920F93109301221A
:1002E00011920A221292072213921493159305A8D1
:1002F00001F060FC88B90F230093032301930023CE
:100300000293039304930421684601F069FF30B916
:1003100017B05DF804FBFFF7C5FFFFF7C3FFFFF75A
:10032000C1FF000010B501F067FBFFF7BDFF03F050
:1003300099FB03F08DFD03F0E7FB03F01FFD4FF089
:100340009042536943F480635361084C0021204676
:1003500000F00CFD204600F0ADF940F6B83001F099
:1003600073FB034803F0B0FAFBE700BF080100206D
:100370009C000020FEE7FEE7FEE7FEE7FEE7704791
:100380007047704708B501F04DFB08BD08B502483D
:1003900000F0DBF908BD00BF0801002008B50248E5
:1003A00000F0C4FE08BD00BF5401002008B502489B
:1003B00002F096FE08BD00BF9C00002082B00A4BF0
:1003C0001A6E42F001021A661A6E02F001020092E1
:1003D000009A9A6D42F080529A659B6D03F08053AB
:1003E0000193019B02B070470010024030B4036AD1
:1003F00023F001030362026A4468836923F48033B3
:1004000023F073030D681D4322F002028B6813432F
:100410001C4A90420FD002F5006290420BD002F5C8
:100420004062904207D002F58062904203D002F50C
:100430008062904205D123F00803CA681A4322F073
:100440000403104A90420FD002F5006290420BD094
:1004500002F54062904207D002F58062904203D0DC
:1004600002F58062904205D124F440744A69224327
:100470008C691443446085614A684263036230BCFE
:10048000704700BF002C014030B4036A23F480732E
:100490000362036A4468C26922F4803222F0730264
:1004A0000D68154323F400738A6843EA0223184A4F
:1004B000904203D002F50062904206D123F400631B
:1004C000CA6843EA022323F48063114A90420FD0A2
:1004D00002F5006290420BD002F54062904207D0D4
:1004E00002F58062904203D002F58062904207D10B
:1004F00024F440524C6942EA04128C6942EA041422
:100500004460C5614A68C263036230BC704700BF83
:10051000002C014030B4036A23F480530362036A61
:100520004468C26922F0807222F4E6420D6842EA11
:10053000052223F400538D6843EA05330F4DA8428A
:100540000FD005F50065A8420BD005F54065A8421F
:1005500007D005F58065A84203D005F58065A8425F
:1005600004D124F480444D6944EA85144460C26196
:100570004A680264036230BC704700BF002C01402F
:1005800030B4036A23F480330362036A4468426D23
:1005900022F4803222F070020D68154323F40033F8
:1005A0008A6843EA02430F4A90420FD002F5006284
:1005B00090420BD002F54062904207D002F5806273
:1005C000904203D002F58062904204D124F480343A
:1005D0004A6944EA0224446045654A6882650362C8
:1005E00030BC7047002C014030B4036A23F4801300
:1005F0000362036A4468426D22F0807222F4E04292
:100600000D6842EA052223F400138D6843EA05537E
:100610000F4DA8420FD005F50065A8420BD005F597
:100620004065A84207D005F58065A84203D005F5CE
:100630008065A84204D124F480244D6944EA8524CD
:10064000446042654A68C265036230BC704700BFBF
:10065000002C014010B4036A046A24F0010404620F
:10066000846924F0F00C4CEA021223F00A030B43D5
:10067000826103625DF8044B704710B4036A23F093
:10068000100303628469036A24F4704C4CEA02325A
:1006900023F0A00343EA0113826103625DF8044B77
:1006A0007047836823F070030B4343F007038360B4
:1006B0007047000090F83D30DBB2012B36D10223A9
:1006C00080F83D300268D36843F00103D3600368CB
:1006D000194A93421CD0B3F1804F19D0A2F594323D
:1006E000934215D002F58062934211D002F58062E8
:1006F00093420DD002F59432934209D002F5406244
:10070000934205D01A6842F001021A600020704737
:1007100099680A4A0A40062A0AD0B2F5803F09D0F1
:100720001A6842F001021A600020704701207047E9
:100730000020704700207047002C01400700010096
:100740007047704770477047704710B5044603689C
:100750001A6912F0020F11D0DA6812F0020F0DD0F0
:100760006FF002021A610123037703689B6913F09B
:10077000030F79D0FFF7E6FF0023237723681A6978
:1007800012F0040F12D0DA6812F0040F0ED06FF0DE
:1007900004021A610223237723689B6913F4407FC4
:1007A00068D02046FFF7CEFF0023237723681A691D
:1007B00012F0080F12D0DA6812F0080F0ED06FF0A6
:1007C00008021A61042323772368DB6913F0030FFF
:1007D00057D02046FFF7B6FF0023237723681A6916
:1007E00012F0100F12D0DA6812F0100F0ED06FF066
:1007F00010021A61082323772368DB6913F4407F12
:1008000046D02046FFF79EFF0023237723681A690E
:1008100012F0010F03D0DA6812F0010F3FD1236804
:100820001A6912F0800F03D0DA6812F0800F3DD100
:1008300023681A6912F4807F03D0DA6812F0800FFF
:100840003BD123681A6912F0400F03D0DA6812F026
:10085000400F39D123681A6912F0200F03D0DA68EB
:1008600012F0200F37D110BDFFF76BFF2046FFF7C6
:100870006AFF81E72046FFF764FF2046FFF763FF2A
:1008800092E72046FFF75DFF2046FFF75CFFA3E7F6
:100890002046FFF756FF2046FFF755FFB4E76FF0FD
:1008A00001021A61204603F0BFFAB8E76FF0800238
:1008B0001A61204600F05BFBBAE76FF480721A61A0
:1008C000204600F055FBBCE76FF040021A6120465D
:1008D000FFF73AFFBEE76FF020021A61204600F0F2
:1008E00045FBC0E70368304A904212D0B0F1804F18
:1008F0000FD0A2F5943290420BD002F58062904264
:1009000007D002F58062904203D002F59432904203
:1009100003D123F070034A681343234A90421ED048
:10092000B0F1804F1BD0A2F59432904217D002F55F
:100930008062904213D002F5806290420FD002F59F
:10094000943290420BD002F54062904207D002F5FB
:100950008062904203D002F58062904203D123F47A
:100960004073CA68134323F080034A69134303604A
:100970008B68C3620B6883620B4B98420FD003F500
:10098000006398420BD003F54063984207D003F50B
:100990008063984203D003F58063984201D10B69CC
:1009A0000363012343617047002C014060B310B51D
:1009B000044690F83D3013B3022384F83D302146BD
:1009C00051F8040BFFF78EFF012384F8483084F8B8
:1009D0003E3084F83F3084F8403084F8413084F869
:1009E000423084F8433084F8443084F8453084F849
:1009F000463084F8473084F83D30002010BD80F840
:100A00003C3003F079F9D7E70120704760B310B5A7
:100A1000044690F83D3013B3022384F83D3021465C
:100A200051F8040BFFF75EFF012384F8483084F887
:100A30003E3084F83F3084F8403084F8413084F808
:100A4000423084F8433084F8443084F8453084F8E8
:100A5000463084F8473084F83D30002010BD80F8DF
:100A60003C30FFF76DFED7E70120704730B4036AD2
:100A700023F010030362036A4468826922F08072E3
:100A800022F4E6420D6842EA052223F020038D6835
:100A900043EA0513174DA84203D005F50065A842A7
:100AA00006D123F08003CD6843EA051323F0400309
:100AB000104DA8420FD005F50065A8420BD005F5F2
:100AC0004065A84207D005F58065A84203D005F52A
:100AD0008065A84207D124F4406C4C694CEA840C30
:100AE0008C694CEA8404446082614A6882630362D0
:100AF00030BC7047002C014038B590F83C30012BD9
:100B000000F0958004460D46012380F83C30142AFD
:100B100000F28880DFE802F00B8686861F868686D4
:100B200034868686488686865D868686710000685D
:100B3000FFF75CFC2268936943F008039361226825
:100B4000936923F0040393612268936929690B4335
:100B50009361002067E00068FFF788FF22689369CF
:100B600043F4006393612268936923F48063936183
:100B700022689369296943EA01239361002052E0C6
:100B80000068FFF781FC2268D36943F00803D36152
:100B90002268D36923F00403D3612268D3692969E9
:100BA0000B43D36100203EE00068FFF7B3FC2268EE
:100BB000D36943F40063D3612268D36923F480636B
:100BC000D3612268D369296943EA0123D3610020F4
:100BD00029E00068FFF7D4FC2268536D43F0080356
:100BE00053652268536D23F0040353652268536DE7
:100BF00029690B435365002015E00068FFF7F4FCFA
:100C00002268536D43F4006353652268536D23F4E7
:100C1000806353652268536D296943EA0123536554
:100C2000002000E00120002384F83C3038BD022081
:100C3000FCE710B4846824F47F4C42EA03220A43A0
:100C400042EA0C0282605DF8044B704790F83C3039
:100C5000012B76D010B50446012380F83C300223E6
:100C600080F83D3002689068374B034093600B6812
:100C7000602B4CD029D8402B54D00CD9502B22D1EA
:100C8000CA6849682068FFF7E5FC50212068FFF733
:100C900008FD002005E0202B0DD009D9302B0AD00B
:100CA0000120012384F83D30002384F83C3010BD3E
:100CB0000BB1102B05D119462068FFF7F2FC00207C
:100CC000EFE70120EDE70120EBE7B3F5805F34D0DB
:100CD000B3F5005F0CD1CB684A6889682068FFF7DC
:100CE000A8FF2268936843F4804393600020D8E70C
:100CF000702B24D1CB684A6889682068FFF799FF78
:100D00002268936843F0770393600020C9E7CA68BC
:100D100049682068FFF7B1FC60212068FFF7C1FC3B
:100D20000020BEE7CA6849682068FFF793FC4021AD
:100D30002068FFF7B6FC0020B3E70020B1E70120F0
:100D4000AFE70220704700BF8800FEFF01F01F01DF
:100D50004FF0010C0CFA01FC036A23EA0C03036256
:100D6000036A8A40134303627047000010B50446CB
:100D700010293CD8DFE801F0093B3B3B1F3B3B3BE4
:100D8000263B3B3B2D3B3B3B340090F83E30DBB2F7
:100D9000013B18BF0123002B40F0928010297DD821
:100DA000DFE801F02C7C7C7C6C7C7C7C707C7C7C27
:100DB000747C7C7C780090F83F30DBB2013B18BF3C
:100DC0000123E8E790F84030DBB2013B18BF012374
:100DD000E1E790F84130DBB2013B18BF0123DAE7CD
:100DE00090F84230DBB2013B18BF0123D3E790F803
:100DF0004330DBB2013B18BF0123CCE7022384F868
:100E00003E3001222068FFF7A1FF23682F4A93425A
:100E10000FD002F5006293420BD002F5406293427C
:100E200007D002F58062934203D002F580629342BC
:100E300003D15A6C42F400425A642368234A934215
:100E400030D0B3F1804F2DD0A2F59432934229D007
:100E500002F58062934225D002F58062934221D050
:100E600002F5943293421DD002F54062934219D0AC
:100E70001A6842F001021A60002022E0022384F87E
:100E80003F30BEE7022384F84030BAE7022384F8FB
:100E90004130B6E7022384F84230B2E7022384F8F7
:100EA0004330AEE799680A4A0A40062A0AD0B2F5EA
:100EB000803F09D01A6842F001021A60002000E069
:100EC000012010BD0020FCE70020FAE7002C0140C3
:100ED0000700010090F83C20012A42D030B40346BC
:100EE000012280F83C20022280F83D200068426800
:100EF00084681D4DA84203D005F50065A84203D1C2
:100F000022F470024D682A4322F070020D682A43D1
:100F100042601A681448824216D0B2F1804F13D052
:100F2000A0F5943082420FD000F5806082420BD051
:100F300000F58060824207D000F59430824203D0F1
:100F400000F54060824204D124F080048968214386
:100F50009160012283F83D20002083F83C0030BCE2
:100F600070470220704700BF002C01407047704757
:100F70007047026852E8003F23F4907342E8003162
:100F80000029F6D1026802F1080353E8003F23F07C
:100F90000103083242E800310029F3D1036E012B2E
:100FA00005D02023C36700230366436670470268A9
:100FB00052E8003F23F0100342E800310029F6D147
:100FC000EFE7836F212B00D07047B0F852309BB20F
:100FD00093B9026852E8003F23F0800342E80031F1
:100FE0000029F6D1026852E8003F43F0400342E88E
:100FF00000310029F6D17047C26C036812781A8557
:10100000C36C0133C364B0F852309BB2013B9BB256
:10101000A0F85230D8E7836F212B00D07047B0F88A
:1010200052309BB293B9026852E8003F23F080032C
:1010300042E800310029F6D1026852E8003F43F04F
:10104000400342E800310029F6D17047C36C1B8889
:101050000268C3F308031385C36C0233C364B0F89A
:1010600052309BB2013B9BB2A0F85230D6E7000051
:10107000836F202B2FD100292FD0002A2FD090F85A
:101080007430012B2DD0012380F87430C164A0F896
:101090005020A0F8522000238366C0F8803021231E
:1010A00083678368B3F5805F0FD00F4B836600239F
:1010B00080F87430026852E8003F43F0800342E851
:1010C00000310029F6D1002070470369002BECD1D4
:1010D000064B8366EBE70220704701207047012032
:1010E00070470220704700BFC30F000817100008A8
:1010F000704708B5026852E8003F23F0400342E819
:1011000000310029F6D12023836700238366FFF78F
:10111000EFFF08BD704708B5806A0023A0F85A3079
:10112000A0F85230FFF7F6FF08BD704770B50446CF
:101130000168CB6908688D6840F60F021A4005D136
:1011400013F0200F02D010F0200F20D12AB115F09B
:10115000010222D1AC4E30421FD1226E012A00F092
:10116000AB8013F4801F03D015F4800F40F0398159
:1011700013F0800F03D010F0800F40F0398113F08E
:10118000400F03D010F0400F40F0398170BD636E06
:10119000002BFBD020469847F8E713F0010F09D049
:1011A00010F4807F06D001250D62D4F88010294309
:1011B000C4F8801013F0020F09D042B12168022553
:1011C0000D62D4F8801041F00401C4F8801013F0CF
:1011D000040F09D042B1216804250D62D4F88010B3
:1011E00041F00201C4F8801013F0080F0BD010F08A
:1011F000200F00D13AB1226808211162D4F8802072
:101200000A43C4F8802013F4006F0CD010F0806FF4
:1012100009D022684FF400611162D4F8802042F0B6
:101220002002C4F88020D4F88020002AAED013F029
:10123000200F06D010F0200F03D0636E0BB12046B4
:101240009847D4F8802023689B6813F0400F02D1A0
:1012500012F0280F29D02046FFF78BFE23689B68E9
:1012600013F0400F1DD0226802F1080353E8003F3D
:1012700023F04003083242E800310029F3D1236F04
:101280005BB1624A9A63206F01F034FD00283FF49D
:101290007DAF206F836B984778E72046FFF73AFFD2
:1012A00074E72046FFF736FF70E72046FFF732FF6E
:1012B0000023C4F8803069E713F0100F3FF451AFFA
:1012C00010F0100F3FF44DAF10230B6223689B68A2
:1012D00013F0400F4ED0226F13685B689BB2002B57
:1012E0003FF454AFB4F8581099427FF64FAFA4F8CA
:1012F0005A3013681B6813F0200F30D1226852E86F
:10130000003F23F4807342E800310029F6D12268BF
:1013100002F1080353E8003F23F00103083242E8DA
:1013200000310029F3D1226802F1080353E8003F9D
:1013300023F04003083242E800310029F3D1202392
:10134000E36700232366226852E8003F23F010037E
:1013500042E800310029F6D1206F01F0A6FCB4F874
:101360005810B4F85A309BB2C91A89B22046FFF718
:10137000DCFE0BE7B4F85810B4F85A309BB2C91A27
:1013800089B2B4F85A309BB2002B3FF4FFAE00296B
:101390003FF4FCAE226852E8003F23F4907342E829
:1013A00000300028F6D1226802F1080353E8003F1C
:1013B00023F00103083242E800300028F3D1202353
:1013C000E367002323666366226852E8003F23F048
:1013D000100342E800300028F6D12046FFF7A5FEB2
:1013E000D4E64FF480130B62204600F0DBFACDE622
:1013F000A36E002B3FF4CAAE20469847C6E62046AF
:10140000FFF777FEC2E600BF2001000417110008B5
:1014100010B50446016883680269134342691343A7
:10142000C269134308688E4A02401A430A60226860
:10143000536823F44053E1680B435360A169226869
:10144000884B9A4201D0236A1943936823F430638E
:101450000B4393602368844A934210D0834A93429B
:1014600021D0834A934237D0824A93425CD0824A49
:1014700093426BD07B4A93427DD010223AE002F532
:101480005842D2F8882002F00302032A09D8DFE884
:1014900002F00204870601222CE004222AE008223E
:1014A00028E0102226E002F5E632D2F8882002F089
:1014B0000C020C2A0ED8DFE802F0070D0D0D090D05
:1014C0000D0D750D0D0D0B00002213E0042211E02F
:1014D00008220FE010220DE002F5E432D2F8882055
:1014E00002F03002202A5FD01AD8002A5ED0102ADB
:1014F0005ED104225B498B4276D0E069B0F5004FA3
:1015000000F0A380082A00F20E81DFE812F0DD006F
:10151000F300DB000C01F6000C010C010C01F900DA
:10152000302A47D10822E5E702F5E232D2F88820D6
:1015300002F0C002802A3FD004D8FAB3402A3FD13B
:101540000422D7E7C02A3DD10822D3E702F5E032D2
:10155000D2F8882002F44072B2F5007F34D005D86A
:10156000A2B3B2F5807F33D10422C3E7B2F5407F46
:1015700030D10822BEE702F5C832D2F8882002F442
:101580004062B2F5006F27D005D83AB3B2F5806F4C
:1015900026D10422AEE7B2F5406F23D10822A9E795
:1015A0000222A7E70222A5E70222A3E70022A1E781
:1015B00010229FE710229DE702229BE7002299E775
:1015C000102297E7102295E7022293E7002291E785
:1015D00010228FE710228DE702228BE7002289E795
:1015E000102287E7102285E7082A00F28C80DFE8C6
:1015F00002F0088A2A8A278A8A8A05004FF4004066
:1016000003E000F0A1FE00287FD0626802EB4203F5
:1016100083427CD8B0EB023F7BD8010E0002530816
:10162000C0184FF0000341F10001FEF701FEA0F5E4
:101630004072124B9A426ED82368D860002055E061
:1016400000F05EFADFE70E48DFE7082A65D8DFE83A
:1016500002F019330564366464641D00084815E01F
:10166000F369FFEF00800040003801400044004073
:1016700000480040004C004000500040FFFC0F00BC
:101680000024F40000F060FE002848D0626853088F
:1016900003EB4003B3FBF2F3A3F110014FF6EF723B
:1016A00091423ED89AB222F00F02C3F34203134391
:1016B0002268D360002019E000F058FEE4E700F053
:1016C0001FFAE1E71B4802E000F03EFE68B36368E2
:1016D00000EB5300B0FBF3F0A0F110024FF6EF73F4
:1016E0009A4224D8236880B2D86000200023636621
:1016F000A36610BD00F03AFEE8E700F001FAE5E766
:101700004FF40040E3E70120F0E70020EEE701207E
:10171000ECE70120EAE70120E8E70120E6E7002006
:10172000E4E70120E2E70120E0E70020DEE7012016
:10173000DCE700BF0024F400436A13F0010F06D079
:101740000268536823F40033816A0B435360436A91
:1017500013F0020F06D00268536823F48033C16A85
:101760000B435360436A13F0040F06D002685368BA
:1017700023F48023016B0B435360436A13F0080F7B
:1017800006D00268536823F40043416B0B43536057
:10179000436A13F0100F06D00268936823F4805355
:1017A000816B0B439360436A13F0200F06D00268ED
:1017B000936823F40053C16B0B439360436A13F0A7
:1017C000400F0AD00268536823F48013016C0B4366
:1017D0005360036CB3F5801F0BD0436A13F0800F86
:1017E00006D00268536823F40023816C0B435360D6
:1017F00070470268536823F4C003416C0B43536085
:10180000EBE72DE9F84305460F4616469946DDF805
:1018100020802B68DC6937EA04040CBF0124002413
:10182000B44253D1B8F1FF3FF3D000F007F9A0EB79
:10183000090040452DD8B8F1000F2AD02B681A684E
:1018400012F0040FE5D0DA6912F4006FE1D04FF422
:1018500000621A622A6852E8003F23F4D07342E81B
:1018600000310029F6D12A6802F1080353E8003F4D
:1018700023F00103083242E800310029F3D120238C
:10188000AB67EB67C5F88030002385F87430032020
:101890001DE02A6852E8003F23F4D07342E800318B
:1018A0000029F6D12A6802F1080353E8003F23F02B
:1018B0000103083242E800310029F3D12023AB674D
:1018C000EB67002385F87430032000E00020BDE8BA
:1018D000F88330B583B004460023C0F8803000F0B0
:1018E000ADF805462268126812F0080F0DD1236882
:1018F0001B6813F0040F16D12023A367E3670020B1
:10190000206684F8740003B030BD6FF07E4300930E
:10191000034600224FF400112046FFF772FF002813
:10192000E5D00320EFE76FF07E4300932B460022C3
:101930004FF480012046FFF764FF0028DCD003202D
:10194000E1E768B310B50446836F03B32423A367AC
:101950002268136823F0010313602046FFF758FD47
:10196000012813D0636ABBB92268536823F49043FB
:1019700053602268936823F02A03936022681368F7
:1019800043F0010313602046FFF7A3FF10BD80F86A
:10199000743002F079FAD9E72046FFF7CDFEE3E78D
:1019A0000120704770470000104B1B780BB90120D5
:1019B000704710B504464FF47A70B0FBF3F30C4A4D
:1019C0001068B0FBF3F001F065FA68B90F2C01D98B
:1019D00001200AE0002221464FF0FF3001F014FA06
:1019E000044B1C60002000E0012010BD000000201E
:1019F000080000200400002010B5094A136843F4D1
:101A000080731360032001F0EDF90020FFF7CCFF95
:101A100010B10124204610BD0446FEF7CFFCF9E7C3
:101A200000200240034B1B78034A11680B441360EB
:101A3000704700BF0000002094000020014B186890
:101A4000704700BF9400002038B50446FFF7F6FF4A
:101A50000546B4F1FF3F02D0044B1B781C44FFF74E
:101A6000EDFF401BA042FAD338BD00BF00000020AC
:101A700030B583B00446204B9B6D13F0805F0BD0D4
:101A800001F060F9B0F5007F17D0802C1FD82DD061
:101A9000702C2DD000211BE0174DAB6D43F080530F
:101AA000AB65AB6D03F080530193019B01F04AF9E4
:101AB000AB6D23F08053AB65E4E7802C03D9A02CF9
:101AC00003D9022104E0002102E0012100E003210A
:101AD0000A4A136823F007030B431360136803F0EB
:101AE00007038B4206D1002003B030BD0221EFE78F
:101AF0000121EDE70120F7E700100240002002403D
:101B0000284A9368D26802F0030213F00C030AD04B
:101B10000C2B06D0042B1FD0082B20D0002002460F
:101B200010E0012AF6D11F4A126812F0080F0CD1FA
:101B30001C4AD2F89420C2F303221B4951F82220F8
:101B400043B100200C2B0DD07047164A1268C2F327
:101B50000312F2E71046F5E714480022F2E71448B2
:101B60000022EFE70F4BDB6803F00303022B16D0D4
:101B7000032B00D10E4A0B49CB68C3F30213013388
:101B8000C868C0F3062002FB00F0B0FBF3F0CB689E
:101B9000C3F3416301335B00B0FBF3F0D4E7034AC6
:101BA000E9E700BF00100240004B00080024F400E9
:101BB00000127A00002800F0FC82F0B583B00446E1
:101BC000964B9D6805F00C05DE6806F00306036879
:101BD00013F0100F5AD0E5B10C2D18D0A369002BCB
:101BE00000F0BB808D4A136843F001031360FFF7D8
:101BF00025FF0746894B1B6813F0020F40F09A80BF
:101C0000FFF71CFFC01B0228F4D90320DCE2012EE1
:101C1000E4D1824B1B6813F0020F03D0A369002BA1
:101C200000F0C982206A7D4B1B6813F0080F5BD05F
:101C30007A4B1B6803F0F00398425CD8774B1A6824
:101C400042F008021A601A6822F0F002216A0A4380
:101C50001A605A6822F47F42E16942EA01225A601E
:101C6000002D60D0FFF74CFF6C4B9B68C3F3031350
:101C70006B4AD35C03F01F03D8406A4B18606A4B71
:101C80001868FFF791FE002840F09E82236813F049
:101C9000010F00F08180082D75D00C2D71D0636884
:101CA000B3F5803F00F09780B3F5A02F00F0998046
:101CB0005A4B1A6822F480321A601A6822F4802281
:101CC0001A606368002B00F09980FFF7B7FE0746A3
:101CD000524B1B6813F4003F5ED1FFF7AFFEC01BF1
:101CE0006428F5D903206FE24C4BD3F894301B09DC
:101CF00003F0F003A0E7FFF7BBFE002840F05D8291
:101D0000464B1A6842F008021A601A6822F0F00284
:101D1000216A0A431A605A6822F47F42E16942EA62
:101D200001225A609EE7206AFFF7A2FE002899D0A0
:101D3000012049E2394B1A6842F008021A601A6819
:101D400022F0F002216A0A431A605A6822F47F42A4
:101D5000E16942EA01225A6098E7304A136823F0A9
:101D600001031360FFF76AFE07462C4B1B6813F054
:101D7000020F8BD0FFF762FEC01B0228F5D90320AB
:101D800022E2032E8BD1254B1B6813F4003F03D0B6
:101D90006368002B00F01382236813F0020F58D001
:101DA000042D45D00C2D41D0E368002B77D01B4A81
:101DB000136843F480731360FFF740FE0646174B29
:101DC0001B6813F4806F61D1FFF738FE801B022877
:101DD000F5D90320F8E1114A136843F48033136006
:101DE0006FE703F18043A3F53C331A6842F4802285
:101DF0001A601A6842F480321A6062E7FFF71EFE2A
:101E00000746064B1B6813F4003FC5D0FFF716FECC
:101E1000C01B6428F5D90320D6E100BF00100240A2
:101E2000E84A00080800002004000020022EBBD170
:101E3000954B1B6813F4806F03D0E368002B00F010
:101E4000C081914A536823F0F853216943EA016342
:101E50005360236813F0080F4CD063699BB38A4A20
:101E6000D2F8943043F00103C2F89430FFF7E6FD56
:101E70000646854BD3F8943013F0020F3AD1FFF7A2
:101E8000DDFD801B0228F4D903209DE17E4A5368C2
:101E900023F0F853216943EA01635360D9E77A4A92
:101EA000136823F480731360FFF7C8FD0646764B72
:101EB0001B6813F4806FCCD0FFF7C0FD801B022895
:101EC000F5D9032080E1704AD2F8943023F0010361
:101ED000C2F89430FFF7B2FD06466B4BD3F894304E
:101EE00013F0020F06D0FFF7A9FD801B0228F4D9DA
:101EF000032069E1236813F0040F7AD0624B9B6DD5
:101F000013F0805F36D1604B9A6D42F080529A6533
:101F10009B6D03F080530193019B01265B4B1B6873
:101F200013F4807F28D0A368012B39D0052B3FD034
:101F3000554BD3F8902022F00102C3F89020D3F83B
:101F4000902022F00402C3F89020A368002B3DD01B
:101F5000FFF774FD07464C4BD3F8903013F0020F97
:101F600046D1FFF76BFDC01B41F288339842F2D98E
:101F7000032029E10026D1E7444A136843F4807323
:101F80001360FFF75BFD0746404B1B6813F4807F2F
:101F9000C9D1FFF753FDC01B0228F5D9032013E177
:101FA000394AD2F8903043F00103C2F89030CCE7C0
:101FB000354BD3F8902042F00402C3F89020D3F8B8
:101FC000902042F00102C3F89020BEE7FFF736FDF3
:101FD00007462D4BD3F8903013F0020F08D0FFF7CF
:101FE0002DFDC01B41F288339842F2D90320EBE06B
:101FF0006EBBA36A002B00F0E680022B2DD00C2DC7
:1020000000F0E880204B1A6822F080721A601B688A
:1020100013F0205F04D11C4AD36823F00303D3607C
:10202000194AD36823F0887323F48033D360FFF711
:1020300005FD0446144B1B6813F0007F00F0B780C9
:10204000FFF7FCFC001B0228F4D90320BCE00E4A79
:10205000936D23F080539365CBE70B4BDB6803F064
:102060000301E26A914213D00C2D00F0AF80064BC1
:102070001B6813F0806F40F0AB80034B1B6813F0BC
:10208000805F31D001209FE00010024000700040CE
:1020900003F07002216B0139B2EB011FE4D103F4AC
:1020A000FE42616BB2EB012FDED103F40031A26B73
:1020B000073A18BF01229142D6D103F4C001E26B66
:1020C0005208013AB1EB425FCED103F0C063226CFB
:1020D0005208013AB3EB426FC6D13F4B1B6813F075
:1020E000007F4AD000206FE03B4A136823F08073E2
:1020F0001360FFF7A3FC0546374B1B6813F0007F06
:1021000006D0FFF79BFC401B0228F5D903205BE0BB
:10211000314AD36831491940E36A206B013843EAF8
:102120000013606B43EA0023E06B4008013843EA88
:102130004053206C4008013843EA4063A06B00091B
:1021400043EA40431943D160136843F0807313603E
:10215000D36843F08073D360FFF770FC04461E4BD6
:102160001B6813F0007F06D1FFF768FC001B0228F4
:10217000F5D9032028E0002026E0174B1A6842F02A
:1021800080721A60DA6842F08072DA60FFF756FCFB
:102190000446114B1B6813F0007F06D1FFF74EFC7D
:1021A000031B022BF5D903200EE000200CE00020D9
:1021B0000AE001207047012006E0012004E0012030
:1021C00002E0012000E0002003B0F0BD0120FBE7A9
:1021D0000120F9E70120F7E7001002408C809DF90B
:1021E000002800F0988070B50C4605464E4B1B68E1
:1021F00003F007038B420BD24B4A136823F007030B
:102200000B431360136803F007038B4240F0858093
:102210002B6813F0010F39D06B68032B09D0022B08
:1022200026D063BB414A126812F0020F06D101208A
:1022300070E03E4A126812F0007F70D03B498A6815
:1022400022F0030213438B60FFF7F8FB0646374B7F
:102250009B6803F00C036A68B3EB820F16D0FFF79C
:10226000EDFB801B41F288339842F0D9032051E006
:102270002E4A126812F4003FE0D101204AE02B4AB6
:10228000126812F4806FD9D1012043E02B6813F05B
:10229000020F06D0254A936823F0F003A9680B4388
:1022A0009360214B1B6803F00703A3420AD91E4A1F
:1022B000136823F0070323431360136803F0070335
:1022C000A3422ED12B6813F0040F06D0174A93684F
:1022D00023F4E063E9680B4393602B6813F0080F65
:1022E00007D0124A936823F46053296943EAC10373
:1022F0009360FFF705FC0D4B9B68C3F303130C4A77
:10230000D35C03F01F03D8400A4B18600A4B1868CF
:10231000FFF74AFB70BD012070470120FAE701205A
:10232000F8E70120F6E700BF00200240001002405D
:10233000E84A00080800002004000020014B18684B
:10234000704700BF0800002008B5FFF7F7FF054BF6
:102350009B68C3F30223044AD35C03F01F03D840F5
:1023600008BD00BF00100240F84A000808B5FFF79A
:10237000E5FF054B9B68C3F3C223044AD35C03F01B
:102380001F03D84008BD00BF00100240F84A0008F3
:10239000F8B504460F46594BDB6813F0030F18D00D
:1023A000564BDB6803F003030268934202D0012519
:1023B0002846F8BD002A00F09E80504BDB68C3F32E
:1023C000021301334268934201D00125F0E7002552
:1023D00009E00368022B57D0032B5CD0012B42D0BD
:1023E0000125002DE4D1454A136823F08063136072
:1023F000FFF724FB0646414B1B6813F0006F05D026
:10240000FFF71CFB831B022BF5D90325002DCFD131
:10241000002F4ED139490B6923F41F3323F4407345
:10242000A068E2681209520442EA002213430B61D9
:10243000324A136843F080631360FFF7FFFA0646E1
:102440002E4B1B6813F0006F05D1FFF7F7FA831BC3
:10245000022BF5D90325002DAAD1284A1369A169B9
:102460000B431361A4E7254A126812F0020F1ED035
:102470002248C26822F073026168013943EA0113FD
:102480001343C3600025ACE71C4A126812F4806F46
:10249000EED10125A5E7194A126812F4003FE7D1F1
:1024A000164A126812F4802FE2D1012599E701251E
:1024B00097E7012F0FD01148026922F0C06222F481
:1024C000FE42A16863695B08013B5B0643EA0123A6
:1024D0001A430261ACE70948026922F4C00222F4FF
:1024E000FE42A16823695B08013B5B0543EA0123C7
:1024F0001A4302619CE701255AE700BF0010024021
:10250000F8B504460F46504BDB6813F0030F18D0A4
:102510004D4BDB6803F003030268934202D00125B0
:102520002846F8BD002A00F08C80474BDB68C3F3D7
:10253000021301334268934201D00125F0E70025E0
:1025400009E00368022B57D0032B5CD0012B42D04B
:102550000125002DE4D13C4A136823F08053136019
:10256000FFF76CFA0646384B1B6813F0005F05D086
:10257000FFF764FA831B022BF5D90325002DCFD179
:10258000002F4ED130494B6923F41F3323F440739D
:10259000A068E2681209520442EA002213434B6128
:1025A000294A136843F080531360FFF747FA064641
:1025B000254B1B6813F0005F05D1FFF73FFA831B23
:1025C000022BF5D90325002DAAD11F4A5369616951
:1025D0000B435361A4E71C4A126812F0020F1ED08D
:1025E0001948C26822F073026168013943EA011395
:1025F0001343C3600025ACE7134A126812F4806FDE
:10260000EED10125A5E7104A126812F4003FE7D188
:102610000D4A126812F4802FE2D1012599E70125B5
:1026200097E70948426922F0C06222F4FE42A1689D
:1026300023695B08013B5B0643EA01231A434261BD
:10264000AEE701256CE700BF001002402DE9F04124
:1026500082B00446036813F4006F33D0436EB3F5C1
:10266000000F1FD00CD823B3B3F5800F05D1002184
:102670002030FFF745FF064620E001273E4623E0D5
:10268000B3F5400F0BD10026604AD2F8883023F40E
:102690004003616E0B43C2F88830002714E0012725
:1026A0003E4611E0594AD36843F48033D360002694
:1026B000EAE700210430FFF76BFE0646002EE3D068
:1026C000374601E000273E46236813F4805F30D090
:1026D000A36EB3F1007F1FD00DD81BB3B3F1807F81
:1026E00006D1002104F12000FFF70AFF064605E0AD
:1026F00001273E461DE0B3F1407F0AD1C6B9434AE7
:10270000D2F8883023F04073A16E0B43C2F88830B2
:102710000FE001273E460CE03C4AD36843F4803387
:10272000D360EBE70021201DFFF732FE0646E5E708
:102730003746236813F4003F71D0344B9B6D13F080
:10274000805F4ED1314B9A6D42F080529A659B6DFD
:1027500003F080530193019B4FF001082C4A13684A
:1027600043F480731360FFF769F90546284B1B6833
:1027700013F4807F05D1FFF761F9401B0228F5D9DA
:102780000326002E46D1214BD3F8903013F440732A
:1027900016D0D4F884209A4212D01C4AD2F8903035
:1027A00023F44073D2F8901041F48031C2F89010B5
:1027B000D2F8901021F48031C2F89010C2F8903015
:1027C00013F0010F10D1002E40F027810F4AD2F8EC
:1027D000903023F44073D4F884100B43C2F8903047
:1027E00019E04FF00008B9E7FFF728F90546074B55
:1027F000D3F8903013F0020FE5D1FFF71FF9401B1B
:1028000041F288339842F2D90326DCE700100240F7
:10281000007000403746B8F1000F40F00081236897
:1028200013F0010F08D09D4AD2F8883023F003033B
:10283000A16B0B43C2F88830236813F0020F08D055
:10284000964AD2F8883023F00C03E16B0B43C2F8B0
:102850008830236813F0040F08D0904AD2F88830EB
:1028600023F03003216C0B43C2F88830236813F047
:10287000080F08D0894AD2F8883023F0C003616C71
:102880000B43C2F88830236813F0100F08D0834A36
:10289000D2F8883023F44073A16C0B43C2F888301F
:1028A000236813F0200F08D07C4AD2F8883023F434
:1028B0004063E16C0B43C2F88830236813F4007F57
:1028C00008D0764AD2F8883023F44023E16D0B43D8
:1028D000C2F88830236813F4806F08D06F4AD2F8AA
:1028E000883023F44013216E0B43C2F888302368EC
:1028F00013F0400F08D0694AD2F8883023F44053CF
:10290000216D0B43C2F88830236813F0800F08D084
:10291000624AD2F8883023F44043616D0B43C2F819
:102920008830236813F4807F08D05C4AD2F888305E
:1029300023F44033A16D0B43C2F88830236813F4AD
:10294000005F0FD0554AD2F8883023F04063E16E23
:102950000B43C2F88830E36EB3F1006F65D0B3F17A
:10296000806F67D0236813F4002F0FD04B4AD2F842
:10297000883023F04063216F0B43C2F88830236F07
:10298000B3F1006F5ED0B3F1806F60D0236813F4B1
:10299000802F0FD0414AD2F8883023F04063616F16
:1029A0000B43C2F88830636FB3F1006F57D0B3F1B7
:1029B000806F59D0236813F4804F0FD0374AD2F874
:1029C000883023F04053A16F0B43C2F88830A36FC7
:1029D000B3F1805F50D0B3F1005F55D0236813F49A
:1029E000004F08D02D4AD2F8883023F08043E16FA1
:1029F0000B43C2F88830236813F4803F09D0274A7C
:102A0000D2F8883023F00043D4F880100B43C2F88A
:102A10008830384602B0BDE8F0813746FBE61F4AF1
:102A2000936D23F080539365F9E6D36843F48013E4
:102A3000D36097E70121201DFFF7AAFC002891D061
:102A400007468FE7D36843F48013D3609EE70121E4
:102A5000201DFFF79DFC002898D0074696E7D36815
:102A600043F48013D360A5E70121201DFFF790FCFC
:102A700000289FD007469DE70221201DFFF788FC14
:102A80000028ABD00746A9E7022104F12000FFF798
:102A900037FD0028A2D00746A0E700BF0010024083
:102AA000F0B583B000236BE085685E000324B4407A
:102AB00025EA0405CC68B4402C438460456825EAC7
:102AC0000C054C68C4F300149C402C43446069E03E
:102AD000C56A25EA0C05C4F3C0049C402C43C462BB
:102AE00066E0DD08083550F8254003F0070C4FEA92
:102AF0008C0C4FF00F0E0EFA0CFE24EA0E0E0C6931
:102B000004FA0CF444EA0E0440F8254067E0062479
:102B100000E0002404FA0EF42C430CF1020C5C4D8E
:102B200045F82C405B4CA568D44325EA02064F6863
:102B300017F4801F01D042EA0506564DAE60ED68DD
:102B400004EA05064F6817F4001F01D042EA0506A3
:102B5000504DEE606D6804EA05064F6817F4003FBB
:102B600001D042EA05064B4D6E602D682C404E6840
:102B700016F4803F01D042EA0504464A146001334E
:102B80000A6832FA03F400F081804FF0010C0CFA6D
:102B900003FC1CEA0202F2D04C6804F00304013C7E
:102BA000012C81D94C6804F0030EBEF1030F8FD0C5
:102BB0004C6804F00304032C0CD0C4685D004FF093
:102BC000030C0CFA05FC24EA0C0C8C68AC4044EABB
:102BD0000C04C4604C6804F00304022C81D0046827
:102BE0004FEA430E4FF0030C0CFA0EFC24EA0C0CD7
:102BF0004C6804F0030404FA0EF444EA0C04046084
:102C00004C6814F4403FBAD0234C256E45F00105C2
:102C10002566246E04F001040194019C4FEA930C94
:102C20000CF102051A4C54F8255003F0030E4FEA3C
:102C30008E0E0F2404FA0EF425EA0405B0F1904F2D
:102C40003FF467AF154CA04216D004F58064A04253
:102C500014D004F58064A04212D004F58064A04230
:102C600010D004F58064A0420ED004F58064A04228
:102C70003FF44DAF07244DE701244BE7022449E719
:102C8000032447E7042445E7052443E703B0F0BDE8
:102C90000000014000040140001002400004004810
:102CA0000AB1816170478162704790F82530DBB2CC
:102CB000022B06D00423C363002380F824300120B4
:102CC00070470268136823F00E03136002681368EC
:102CD00023F001031360436C03F01C03016C012219
:102CE00002FA03F34B6080F82520002380F824309B
:102CF0001846704708B590F82530DBB2022B03D098
:102D00000423C363012008BD0268136823F00E0387
:102D100013600268136823F001031360436C03F02F
:102D20001C03016C012202FA03F34B6080F825209A
:102D3000002380F82430836B13B198470020E2E72A
:102D40000020E0E7024B186800F4C060704700BF45
:102D500000700040B0F5007F0FD01F4B1B6803F4DC
:102D6000C063B3F5806F34D01B4A136823F4C0638B
:102D700043F48063136000207047174B1B6803F413
:102D8000C063B3F5007F20D0134A136823F4C063F7
:102D900043F400731360114B1B68322202FB03F3F0
:102DA0000F4AA2FB03239B0C013300E0013B0A4ABC
:102DB000526912F4806F01D0002BF7D1064B5B698A
:102DC00013F4806F03D10020704700207047032068
:102DD00070470020704700BF0070004008000020CE
:102DE00083DE1B43074AD36823F4E0631B041B0CF8
:102DF000000200F4E060034343F0BF6343F4003398
:102E0000D360704700ED00E000B5194BDB68C3F3F9
:102E10000223C3F1070CBCF1040F28BF4FF0040CD0
:102E200003F1040EBEF1060F18D9033B4FF0FF3E2D
:102E30000EFA0CFC21EA0C0199400EFA03FE22EA7C
:102E40000E020A4300280BDB1201D2B200F16040EF
:102E500000F5614080F800235DF804FB0023E5E7FE
:102E600000F00F001201D2B2024B1A54F4E700BF77
:102E700000ED00E014ED00E0002807DB00F01F0289
:102E8000400901239340024A42F82030704700BFB6
:102E900000E100E00138B0F1807F0BD24FF0E02379
:102EA0005861054AF02182F823100020986107221A
:102EB0001A6170470120704700ED00E0034AD2F824
:102EC000883043F47003C2F88830704700ED00E0AA
:102ED00030B583B000230193002800F0EB80044656
:102EE000436D13B323689A6812F0005F05D09A68A7
:102EF00022F0204222F03F029A602268936813F089
:102F0000805F1FD1936823F0104323F03F0343F009
:102F100080539360684B1B689B09684AA2FB03239C
:102F20009B0901335B00019309E000F02FFE0023B1
:102F3000A36584F85030D5E7019B013B0193019BC9
:102F4000002BF9D12268936813F0805F40F08980EC
:102F5000636D43F010036365A36D43F00103A36544
:102F60000120936813F0040300D00123616D11F078
:102F7000100F40F09880002B40F09580636D23F493
:102F8000817343F002036365936813F0010F1BD153
:102F90004B4B9A6812F0010200D00122494B9B680A
:102FA00013F0010300D001231343474A926812F043
:102FB000010200D00122134306D1636843498A68A5
:102FC00022F47C1213438B60627E636B43EA4233CC
:102FD000E2681343A268134394F8202043EA0243B3
:102FE000012A40D0A26A22B102F47072E16A0A4357
:102FF00013432168CD68364A2A401A43CA602168C3
:103000008B6813F0040300D001238A6812F00802D1
:1030100000D00122B3B9AAB9237E94F8302052001F
:1030200042EA8332CB6823F4804323F00203134344
:10303000CB6094F83830012B1AD02268136923F042
:10304000010313612369012B24D02268136B23F041
:103050000F031363636D23F0030343F00103636500
:1030600026E000207DE7626A013A43EA4243B9E77D
:1030700021680B6923F4FF6323F00403E26B256CE2
:103080002A43656C2A43A56C2A43134343F001038A
:103090000B61D7E721680B6B23F00F03E269013A5C
:1030A00013430B63D6E7636D43F0100363650120A0
:1030B00003B030BD0120FBE708000020632D3E0572
:1030C00000000450000104500002045000030450AA
:1030D00007C0F0FF0368186C704770477047000026
:1030E000F8B5044603681F685D689A4B9E6806F051
:1030F0001F0617F0020F10D015F0020F0DD0436D10
:1031000013F0100F03D1436D43F400634365204671
:1031100000F0A6FC236802221A6017F0040F02D008
:1031200015F0040F05D117F0080F4DD015F0080F5A
:103130004AD0636D13F0100F03D1636D43F4007335
:1031400063652368DA6812F4406F37D1824A93428C
:103150000CD01A4693420CD0092E05D840F22121FA
:10316000F14011F0010F04D1D26803E0A2F58072A2
:10317000F0E7DA6812F4005F20D11A6812F0080F45
:103180001CD09A6812F0040F10D15A6822F00C0279
:103190005A60636D23F480736365636D13F4805F1D
:1031A0000CD1636D43F00103636507E0636D43F089
:1031B00010036365A36D43F00103A365204600F08F
:1031C0003FFD23680C221A6017F0200F02D015F083
:1031D000200F05D117F0400F5CD015F0400F59D0EB
:1031E000636D13F0100F03D1636D43F400536365F7
:1031F0002368DA6C12F0C00F12D10121DA6812F4E0
:10320000406F0FD10120544A93420DD01A46934289
:103210000DD066B1062E0AD0072E08D0D26807E07E
:103220000021EBE70020EEE7A2F58072EFE7DA6815
:1032300051B312F0007F03D030B312F4005F23D1FA
:10324000196811F0400F1FD012F4001F1CD19A68AA
:1032500012F0080F10D15A6822F060025A60636DB4
:1032600023F480536365636D13F4807F0CD1636D29
:1032700043F00103636507E0636D43F0100363658A
:10328000A36D43F00103A365204600F0E5FB23682E
:1032900060221A6017F0800F02D015F0800F2FD136
:1032A00017F4807F02D015F4807F34D117F4007FAB
:1032B00002D015F4007F3AD117F0100F19D015F095
:1032C000100F16D0636B33B1002E3CD0214B9B689E
:1032D00013F4604F0AD0636D43F480636365A36D9C
:1032E00043F00203A3652046FFF7F8FE236810228F
:1032F0001A6017F4806F02D015F4806F2ED1F8BDDC
:10330000636D43F4803363652046FFF7E6FE236870
:1033100080221A60C4E7636D43F40033636520467E
:1033200000F09CFB23684FF480721A60BEE7636D67
:1033300043F480236365204600F091FB23684FF43B
:1033400000721A60B8E72368DB6813F0010FCDD074
:10335000C1E700BF0003045000010450636D43F453
:1033600080436365A36D43F00803A36523684FF4AE
:1033700080621A60204600F070FBC0E7F0B583B0B1
:103380000022019290F85020012A00F04782034663
:10339000012280F850200268926812F0040F09D0D0
:1033A000426D42F0200242650120002283F8502045
:1033B00003B0F0BD4A68052A08D8023A032A68D843
:1033C000DFE802F0025D60630C224A601D684C6811
:1033D0003035220A920002F00C02A85804F01F0EA9
:1033E0001F2404FA0EF420EA04000C68C4F3846C71
:1033F0000CFA0EFC40EA0C00A8501C68A26812F0FF
:10340000040200D00122A06810F0080000D00120C2
:103410000AB9002840D01868826812F0010F17D14D
:103420000A68CD68D0F8B040C2F3120C24EA0C044C
:1034300005F0180CAE4D25FA0CF52A40C2F3120225
:103440002243C0F8B020C868AA4A904200F0B88071
:103450000A68A9490A4200F0DD81A849896801F09B
:10346000E074A748824200F07F81A648824200F0C3
:10347000A681A548824200F0BA81002095E7122279
:103480004A60A3E718224A60A0E74FF480724A60BE
:103490009CE706224A6099E70E688D681434720E24
:1034A000920002F00402A058C6F3045C072606FA54
:1034B0000CF620EA060005FA0CF52843A0504869EE
:1034C0001C68E268C2F3C102520090400D69042DED
:1034D0000ED00E68603454F825708C4A3A4006F0DD
:1034E000F8463043024342F0004244F8252092E778
:1034F000226E206EC0F384600A68C2F3120585BB99
:10350000C2F38462904234D01C68626E606EC0F375
:1035100084600A68C2F3120585BBC2F384629042DC
:1035200034D01C68A26EA06EC0F384600A68C2F337
:10353000120585BBC2F38462904234D01C68E26EEF
:10354000E06EC0F384600A68C2F3120585BBC2F363
:10355000846290427FF45FAFE26E22F00042E26646
:1035600059E792FAA2F212B1B2FA82F2CAE7202225
:10357000C8E7226E22F000422266C5E792FAA2F264
:1035800012B1B2FA82F2CAE72022C8E7626E22F0D4
:1035900000426266C5E792FAA2F212B1B2FA82F272
:1035A000CAE72022C8E7A26E22F00042A266C5E761
:1035B00092FAA2F212B1B2FA82F2CAE72022C8E766
:1035C0001C680A68C2F31205002D3BD1900E013031
:1035D00000F01F0009288CBF00200120002869D0BE
:1035E000002D3ED1900E0130800600F0F840002DF5
:1035F00043D14FEA926C0CF1010C0CF01F0C012628
:1036000006FA0CF63043002D46D1920E013202F03C
:103610001F0202EB4202120510438D6804F1140EE2
:10362000420E920002F004025EF80240C0F3045021
:103630000726864024EA060C85404CEA05054EF82C
:10364000025005E792FAA2F048B1B0FA80F00130DA
:1036500000F01F0009288CBF00200120BEE72020B9
:10366000F5E792FAA2F030B1B0FA80F001308006AE
:1036700000F0F840BBE72020F8E792FAA2F64EB13E
:10368000B6FA86F6013606F01F064FF0010C0CFA6A
:1036900006F6B7E72026F5E792FAA2F242B1B2FAAF
:1036A00082F2013202F01F0202EB42021205B3E77E
:1036B0002022F6E765BB900E0130800600F0F8404E
:1036C00095BB4FEA926C0CF1010C0CF01F0C01261B
:1036D00006FA0CF63043B5BB920E013202F01F021F
:1036E00002EB42021E3A120542F00072104394E7C8
:1036F000FFFF070000007F40000008800003045027
:10370000000052C7000084CB0100008000F0FF03DE
:1037100092FAA2F030B1B0FA80F00130800600F0E9
:10372000F840CDE72020F8E792FAA2F64EB1B6FABB
:1037300086F6013606F01F064FF0010C0CFA06F66D
:10374000C8E72026F5E792FAA2F25AB1B2FA82F25D
:10375000013202F01F0202EB42021E3A120542F051
:103760000072C3E72022F3E711F4000F7FF47DAE6F
:103770001A682B498A4205D001F500718A4201D0AE
:10378000002012E644F4000426498A6822F0E07220
:1037900014438C60244A126892092449A1FB021246
:1037A0009209013202EB42029200019202E0019A78
:1037B000013A0192019A002AF9D10020F5E511F0B1
:1037C000807F7FF456AE1A6815498A4205D001F50C
:1037D00000718A4201D00020E7E544F08072114870
:1037E000816821F0E0710A4382600020DDE511F478
:1037F000800F11D119680A4A914201D00020D4E506
:1038000044F480020748816821F0E0710A43826035
:103810000020CAE50020C8E50020C6E50220C7E573
:10382000000004500003045008000020632D3E05F2
:1038300038B503689A6812F0010F40D104469968C0
:10384000204A114209D0436D43F010034365836D54
:1038500043F001038365012032E09A6822F00042C0
:1038600022F03F0242F001029A60FEF7E7F80546B7
:1038700023681A6812F0010F1FD19A6812F0010F25
:1038800007D19A6822F0004222F03F0242F0010282
:103890009A60FEF7D3F8431B022BE9D923681B6813
:1038A00013F0010FE4D1636D43F010036365A36D62
:1038B00043F00103A365012002E0002000E00020A6
:1038C00038BD00BF3F00008038B5614B9D6803687C
:1038D0009B6813F0040F40F0B680044605F01F0506
:1038E00090F85030012B00F0B080012380F8503068
:1038F000FFF79EFF002840F0A280636D23F4706301
:1039000023F0010343F4807363652368514A9342B3
:1039100052D01A46934200D01DB9626D22F4801233
:103920006265626D12F4805F49D0A26D22F00602DA
:10393000A2651C221A60002384F850302268536864
:1039400023F01C0353606369082B3BD02268536843
:1039500043F004035360636B23B92268536843F058
:103960001003536023683B4A934231D01A46934276
:1039700031D0092D05D840F22121E94011F0010F85
:1039800029D1616D41F480116165D26812F0007F28
:103990005AD0626D22F4405242F4805262656269EC
:1039A000082A42D05A6822F040025A6022685368BE
:1039B00043F02003536047E0A2F58072AAE700229B
:1039C000A265B6E72268536843F008035360C2E774
:1039D000A2F58072CBE7DA6812F0007F11D0626D39
:1039E00022F4405242F4805262656269082A12D081
:1039F0005A6822F040025A602268536843F020035C
:103A000053602268936823F0004323F03F0343F0A0
:103A10000403936018E05A6822F020025A6022687A
:103A2000536843F040035360EBE75A6822F02002EA
:103A30005A602268536843F04003536004E0002357
:103A400084F8503000E0022038BD0220FCE700BFBF
:103A500000030450000104507047704770477047DE
:103A60007047000010B58AB00024059406940794AE
:103A700008940994224BDA6C42F00402DA64DA6C9E
:103A800002F004020192019ADA6C42F08002DA64D8
:103A9000DA6C02F080020292029ADA6C42F00102C1
:103AA000DA64DA6C02F001020392039ADA6C42F0F3
:103AB0000202DA64DB6C03F002030493049B2246E7
:103AC0004FF484614FF09040FFF7EAF84FF4005351
:103AD00005934FF404130693079405A90948FEF7CC
:103AE000DFFF4FF484630593012306930794089442
:103AF00005A94FF09040FEF7D3FF0AB010BD00BFFC
:103B0000001002400008004800B587B00023009371
:103B1000019302930393049305931948194A026091
:103B200043608360C360036104224261037643768D
:103B30000122C26180F820308362C36280F8303095
:103B4000436380F83830FFF7C3F990B90E4B009308
:103B500006230193002302937F22039204220492FE
:103B6000059369460648FFF709FC28B907B05DF8D8
:103B700004FBFCF797FBE9E7FCF794FBF6E700BFD3
:103B80009C000020000204500200300410B5AAB0CE
:103B90000446002125912691279128912991882278
:103BA00003A800F00BFA2268224B9A4201D02AB0F7
:103BB00010BD4FF4804303934FF0805321930223B1
:103BC0000493012205920822069207220792089385
:103BD00009934FF080730A9303A8FEF737FD28BBC3
:103BE000154BDA6C42F40052DA64DA6C02F40052DB
:103BF0000192019ADA6C42F00402DA64DB6C03F0A1
:103C000004030293029B012325930B232693002494
:103C1000279425A90948FEF743FF224621462F2075
:103C2000FFF7F2F82F20FFF727F9C0E7FCF73AFB80
:103C3000D6E700BF00020450001002400008004810
:103C400000B583B02548FFF745FA254B1B685BB9E3
:103C500040F6C413984207D9214B02221A60214B27
:103C60001B685A6A204B1A601D4B1B68012B06D03B
:103C70001B4B1B68022B0FD003B05DF804FB40F612
:103C8000C4139842F4D9164B02221A60154B1B68D4
:103C90005A6A154B1A60EBE740F6C3139842EBD80B
:103CA0000F4B01221A600F4B1B685A6A0F4B1A60A8
:103CB0000D4B1B68D21A00230093019341F2883305
:103CC0009A42D4BF002201220949684600F07EF9D9
:103CD000082269460748FDF7CBF9CDE79C00002094
:103CE00004010020080100200001002098000020AD
:103CF000304B0008540100200368B3F1804F00D01E
:103D0000704700B583B003F504339A6D42F00102A9
:103D10009A659B6D03F001030193019B00221146FC
:103D20001C20FFF771F81C20FFF7A6F803B05DF820
:103D300004FB00B587B0002301930293039304931F
:103D400005930368B3F1804F02D007B05DF804FB20
:103D500003F50433DA6C42F00102DA64DB6C03F041
:103D600001030093009B0123019302220292059319
:103D700001A94FF09040FEF793FEE6E700B58FB043
:103D800000230A930B930C930D93079308930993C5
:103D900000930193029303930493059306932148A0
:103DA0004FF0804202604F224260836042F20F7205
:103DB000C26003618361FCF7F9FD20BB4FF48053BF
:103DC0000A930AA91748FCF741FFF8B91548FCF710
:103DD0001DFEF0B900230793099307A91148FDF7C9
:103DE00079F8C8B9602300930022019202920492EC
:103DF00069460C48FCF780FE88B90A48FFF799FF2E
:103E00000FB05DF804FBFCF74DFAD7E7FCF74AFA70
:103E1000DCE7FCF747FADDE7FCF744FAE2E7FCF7FA
:103E200041FAEAE708010020074A137883F001030A
:103E300013702BB140F6C412044B1B685A637047D1
:103E400041F64C52F8E700BF0C00002008010020AA
:103E500008B50B480B4B03604FF4E133436000237C
:103E60008360C36003610C2242618361C3610362AA
:103E70004362FDF766FD00B908BDFCF713FAFBE7E6
:103E8000540100200044004010B5AAB004460021AF
:103E900025912691279128912991882203A800F045
:103EA0008DF822681C4B9A4201D02AB010BD022323
:103EB000039303A8FEF7CAFB50BB184B9A6D42F45C
:103EC00000329A659A6D02F400320192019ADA6C1E
:103ED00042F00102DA64DB6C03F001030293029BFF
:103EE0000C2325930223269300242794032328934D
:103EF0000723299325A94FF09040FEF7D1FD2246D4
:103F000021462620FEF780FF2620FEF7B5FFCCE7EE
:103F1000FCF7C8F9D1E700BF0044004000100240A0
:103F2000DFF834D0FEF7CAFF0C480D490D4A0023D4
:103F300002E0D458C4500433C4188C42F9D30A4A5E
:103F40000A4C002301E013600432A242FBD300F0CC
:103F500011F8FCF7E7F9FEE70080012000000020DF
:103F600078000020804B000878000020EC01002041
:103F7000FEE7000070B50D4D0D4C641BA41000262B
:103F8000A64209D10B4D0C4C00F0A0FD641BA410FF
:103F90000026A64205D170BD55F8043B984701366E
:103FA000EEE755F8043B98470136F2E7704B0008FE
:103FB000704B0008704B0008744B00080244034625
:103FC000934200D1704703F8011BF9E70EB400B526
:103FD0009CB01DAB029006906FF00041094807911C
:103FE0000491094953F8042B05910068019302A933
:103FF00000F06AF8029B00221A701CB05DF804EB16
:1040000003B07047100000200802FFFF70477047A0
:104010002DE9F0478E689E4282460C4690461F4628
:1040200038D88A8912F4906F32D025680969A5EBD7
:104030000109656905EB450505EBD57501334B4471
:104040006D109D4238BF1D46530531D5294600F0FD
:1040500043FB064650B90C23CAF80030A38943F04D
:104060004003A3814FF0FF30BDE8F08721694A4645
:1040700000F0BEFAA38923F4906343F08003A38188
:10408000266165614E44A5EB09052660A5603E46A4
:10409000BE4200D93E4620683246414600F0B6FA9C
:1040A000A3689B1BA3602368334423600020DBE7E5
:1040B0002A4600F06BFB06460028E1D121695046F4
:1040C00000F0BEFAC7E700002DE9F04F98468B8953
:1040D0001B069DB007460D4614460ED50B6963B905
:1040E000402100F0F9FA2860286120B90C233B60D8
:1040F0004FF0FF30D1E040236B6100230993202370
:104100008DF82930CDF80C803023DFF8A8818DF8A8
:104110002A304FF0010923469A4613F8012B0AB1C1
:10412000252AF9D1BAEB040B0BD05B46224629466F
:104130003846FFF76DFF013000F0AA80099A5A4413
:1041400009929AF80030002B00F0A28000234FF073
:10415000FF32CDE905230AF1010A049307938DF894
:1041600053301A935446052214F8011B5148FCF7AA
:104170000FF8049AD8B9D00644BF20238DF85330E5
:10418000110744BF2B238DF853309AF800302A2BA7
:1041900015D0079A544600204FF00A0C214611F81A
:1041A000013B303B092B4ED9B0B1079214E0A0EB94
:1041B000080309FA03F313430493A246D2E7039BCF
:1041C000191D1B680391002BBBBF5B4242F002022A
:1041D00007930793B8BF049223782E2B0CD16378F2
:1041E0002A2B35D1039B1A1D1B680392002BB8BFE5
:1041F0004FF0FF3302340593DFF8C8A02178032283
:104200005046FBF7C5FF40B14023A0EB0A0003FA7C
:1042100000F0049B03430134049314F8011B264867
:104220008DF828100622FBF7B3FF002838D0234B67
:104230001BBB039B073323F0070308330393099B3E
:104240003344099367E70CFB02320C460120A5E7D3
:1042500000230134059319464FF00A0C204610F84C
:10426000012B303A092A03D9002BC5D00591C3E7A9
:104270000CFB012104460123F0E703AB00932A461F
:104280000F4B04A93846AFF30080421C0646D6D136
:10429000AB895B063FF52CAF09981DB0BDE8F08FE8
:1042A00003AB00932A46064B04A9384600F07AF87F
:1042B000EBE700BF354B00083F4B00080000000053
:1042C000114000083B4B00082DE9F047164699467F
:1042D0008A680B69DDF820809342B8BF13463360CB
:1042E00091F8432007460C460AB101333360236836
:1042F000990642BF336802333360256815F006051E
:1043000006D104F1190AE36832689B1AAB4226DC35
:1043100094F84320131E226818BF012392062BD461
:1043200004F1430249463846C04701301ED0236895
:10433000E568326803F00603042B08BFAD1AA368D2
:1043400022690CBF25EAE57500259342C4BF9B1A7C
:10435000ED1800261A34B5421AD1002008E00123D6
:10436000524649463846C047013003D14FF0FF302E
:10437000BDE8F0870135C6E7E1185A1C302081F806
:104380004300224494F8451082F843100233C7E7F3
:104390000123224649463846C0470130E6D001365F
:1043A000D9E700002DE9FF470F7E0C9D782F91463D
:1043B00080460C469A4601F1430207D8622F0AD87C
:1043C000002F00F0D880582F00F0A38004F14205A0
:1043D00084F842703AE0A7F16303152BF6D801A1E7
:1043E00051F823F03D44000851440008CD43000833
:1043F000CD430008CD430008CD43000851440008D8
:10440000CD430008CD430008CD430008CD4300084C
:104410005D450008814400083F450008CD43000881
:10442000CD4300087F450008CD43000881440008C3
:10443000CD430008CD430008474500082B681A1DEE
:104440001B682A6004F1420584F842300123A3E08E
:1044500020682968060601F104030AD50E682B605E
:10446000002E03DA2D23764284F843305E480A2377
:1044700019E00E682B6010F0400F18BF36B2EFE75E
:104480002B682068191D2960010601D51E6802E00D
:104490004606FBD51E8854486F2F0CBF08230A23FD
:1044A000002184F843106568A560002DA2BF216833
:1044B00021F0040121600EB9002D4DD01546B6FB48
:1044C000F3F103FB1167C75D05F8017D3746BB4279
:1044D0000E46F4D9082B0BD12368DE0708D52369D3
:1044E00061689942DEBF302305F8013C05F1FF35D4
:1044F000521B2261CDF800A04B4603AA214640463C
:10450000FFF7E2FE01304CD14FF0FF3004B0BDE8C0
:10451000F087354881F845702968236851F8046BA5
:1045200029601D0614D5DF0744BF43F02003236034
:104530001EB9236823F0200323601023B0E723680B
:1045400043F0200323607823284884F84530E3E7CC
:10455000590648BFB6B2E6E71546BBE72B682668A2
:104560006169181D286035061B6801D5196002E0D5
:104570007006FBD51980002323611546BAE72B6826
:104580001A1D2A601D68626800212846FBF700FE9C
:1045900008B1401B606063682361002384F84330E6
:1045A000A8E723692A4649464046D0470130ABD0A8
:1045B00023689B0713D4E068039B9842B8BF184652
:1045C000A4E70123324649464046D04701309BD0FC
:1045D0000135E36803995B1AAB42F2DCEBE7002597
:1045E00004F11906F5E700BF464B0008574B0008D9
:1045F0000A44914200F1FF3300D1704710B511F821
:10460000014B03F8014F9142F9D110BD884210B51A
:1046100001EB020402D98442234607D8431EA1427B
:1046200008D011F8012B03F8012FF8E702440146E6
:104630008A4200D110BD13F8014D02F8014DF7E791
:1046400037B5002944D051F8043C0190002BA1F16A
:104650000404B8BFE41800F0D9F81E4A01981368A2
:1046600033B96360146003B0BDE8304000F0D4B8E3
:10467000A34208D9256861198B4201BF19685B689C
:1046800049192160EDE71A465B680BB1A342FAD9DC
:1046900011685518A5420BD1246821445418A3422F
:1046A0001160E0D11C685B68536021441160DAE757
:1046B00002D90C230360D6E7256861198B4204BF39
:1046C00019685B68636004BF491921605460CAE7D8
:1046D00003B030BDDC010020F8B5CD1C25F003058A
:1046E00008350C2D38BF0C25002D064601DBA942EC
:1046F00003D90C2333600020F8BD00F087F821496E
:104700000A6814469CB9204F3B6823B921463046BD
:1047100000F06CF838602946304600F067F8431C1A
:1047200023D10C233360304600F076F8E3E72368AA
:104730005B1B17D40B2B03D923601C44256004E0BA
:104740006368A2420CBF0B605360304600F064F80F
:1047500004F10B00231D20F00700C21ACCD01B1A55
:10476000A350C9E722466468CCE7C41C24F00304C4
:10477000A042E3D0211A304600F038F80130DDD1F4
:10478000CFE700BFDC010020E00100202DE9F0416F
:10479000804614460E4621B9BDE8F0411146FFF7A8
:1047A0009BBF2AB9FFF74CFF25462846BDE8F0819C
:1047B00000F038F88442074602D8B4EB500F12D804
:1047C00021464046FFF788FF05460028EDD0BC4251
:1047D0002246314628BF3A46FFF70AFF3146404697
:1047E000FFF72EFFE1E73546DFE7000038B5064D5D
:1047F0000023044608462B6000F01CF8431C02D13D
:104800002B6803B1236038BDE40100200148FFF7A5
:10481000FDBB00BFD80100200148FFF7F8BB00BF77
:10482000D801002051F8043C181F002BBCBF0B58C6
:10483000C0187047044A05491368002B08BF0B468F
:104840001844106018467047E8010020F00100206D
:104850002DE9F0478C468E46089E154604461946BB
:10486000002B40F0AF807245B2FA82F743D94FB1C6
:10487000C7F120030EFA07FC20FA03F3BD4043EA18
:104880000C0CBC404FEA154EA8B2BCFBFEF8230C42
:104890000EFB18CC08FB00F943EA0C43994528D9D4
:1048A000EB1808F1FF3204D2994502D9A8F10202AF
:1048B0002B44A3EB0903B3FBFEFCA4B20EFB1C3399
:1048C0000CFB00F044EA0344A04279D92C190CF106
:1048D000FF3304D2A04202D9ACF102032C44241AC3
:1048E00043EA02401EB1FC40002334607360BDE81F
:1048F000F0874246DDE702B9FFDEE7B9AEEB02031F
:1049000001214FEA154EA8B2B3FBFEFC220C0EFBB0
:104910001C330CFB00F842EA034398454ED9EB18D0
:104920000CF1FF3204D2984502D9ACF102022B44BB
:10493000A3EB0803BFE7C7F120012EFA01F3BD4046
:104940000EFA07FE20FA01F141EA0E014FEA154E78
:10495000AAB2B3FBFEFC0EFB1C300B0C0CFB02F8E6
:1049600043EA0043984504FA07F423D9EB180CF105
:10497000FF3004D2984502D9ACF102002B44A3EBDE
:104980000803B3FBFEFC0CFB02F80EFB1C328BB2DF
:1049900043EA024398450FD9EB180CF1FF3104D2DA
:1049A000984502D9ACF102012B44A3EB080341EA7C
:1049B0000041A6E76046E2E76146F6E76246B7E7F0
:1049C00063468CE7734505D90EB1C6E9000E002198
:1049D00008468CE7B3FA83F787B9734501D382425F
:1049E0000AD8841A6EEB030301209C46002E6AD07D
:1049F000C6E9004C00217AE73846F7E7C7F1200CFA
:104A0000BB4022FA0CF41C4320FA0CF12EFA0CF3F2
:104A10000EFA07FE41EA0E014FEA144900FA07F5C3
:104A2000B3FBF9F81FFA84FE09FB18300B0C08FBE6
:104A30000EFA43EA00439A4502FA07F23FD9E31817
:104A400008F1FF3004D29A4502D9A8F102002344AC
:104A5000A3EB0A0389B2B3FBF9F809FB183308FB8F
:104A60000EFE41EA03418E452BD9611808F1FF3350
:104A700004D28E4502D9A8F10203214443EA004042
:104A8000A0FB0298A1EB0E014145CE46434602D35E
:104A900006D14D4504D2B9EB020E68EB0403013890
:104AA0008EB1B5EB0E0261EB030101FA0CFC22FAA8
:104AB00007F34CEA0303F940C6E900319AE74046A0
:104AC000C6E74346DAE7314611E70000F8B500BF14
:104AD000F8BC08BC9E467047F8B500BFF8BC08BCDF
:084AE0009E4670470000000033
:104AE8000000000000000000010203040607080996
:104AF8000000000001020304A0860100400D03002D
:104B0800801A060000350C0040420F0080841E0009
:104B180000093D0000127A000024F40000366E01FE
:104B28000048E801006CDC0225640D0A00232D30E2
:104B38002B2000686C4C006566674546470030319D
:104B480032333435363738394142434445460030EC
:104B5800313233343536373839616263646566001B
:084B6800E8FCFF7F01000000E2
:084B70008902000800000000AA
:084B78006502000800000000C6
:104B8000010000001000000000093D0001000000CD
:104B900014000020000000000000000000000000E1
:104BA0000000000000000000000000000000000005
:104BB00000000000000000000000000000000000F5
:104BC00000000000000000000000000000000000E5
:104BD00000000000000000000000000000000000D5
:104BE00000000000000000000000000000000000C5
:084BF0000000000000000000BD
:0400000508003F218F
:00000001FF
