:020000040800F2
:1000000000800120D13D000871040008750400083B
:10001000790400087D040008810400080000000045
:10002000000000000000000000000000850400083F
:1000300089040008000000008D04000891040008F5
:10004000213E0008213E0008213E0008213E000814
:10005000213E0008213E0008213E0008213E000804
:10006000213E0008213E0008213E0008213E0008F4
:10007000213E0008213E0008213E0008213E0008E4
:10008000213E0008213E0008213E0008213E0008D4
:10009000213E0008213E0008213E0008213E0008C4
:1000A000213E0008213E0008213E0008213E0008B4
:1000B00095040008213E0008213E0008213E00086A
:1000C000213E0008213E0008213E0008213E000894
:1000D000213E0008213E0008A1040008213E00083E
:1000E000213E0008213E0008213E0008213E000874
:1000F000213E0008213E0008213E0008AD04000812
:10010000213E0008213E0008213E0008213E000853
:10011000213E0008213E0008213E0008213E000843
:10012000213E0008213E0008213E0008213E000833
:10013000213E0008213E0008213E0008213E000823
:10014000213E0008213E0008213E0008213E000813
:10015000213E0008213E0008213E0008213E000803
:10016000213E0008213E0008213E0008213E0008F3
:10017000213E0008213E0008213E0008000000004A
:08018000213E0008213E0008A9
:1001900001F0FF01102A2BDB10F0070F08D010F838
:1001A000013B013A8B422DD010F0070F42B3F6D13C
:1001B000F0B441EA012141EA014122F007047FF055
:1001C00000070023F0E80256083C85EA010586EAAC
:1001D000010685FA47F5A3FA87F586FA47F6A5FAE8
:1001E00087F68EB9EED1F0BC01F0FF0102F00702F4
:1001F00032B110F8013B013A83EA010313B1F8D19F
:100200000020704701387047002D06BF354603387F
:10021000073815F0010F07D1013015F4807F02BFB8
:10022000013015F4C03F0130F0BC0138704700BF09
:1002300053B94AB9002908BF00281CBF4FF0FF314D
:100240004FF0FF3000F00CB8ADF1080C6DE904CEB2
:1002500004F056FADDF804E0DDE9022304B070474B
:10026000704700BF10B5054C237833B9044B13B168
:100270000448AFF300800123237010BD78000020F4
:10028000000000007C49000808B5034B1BB103497E
:100290000348AFF3008008BD000000007C00002090
:1002A0007C4900082DE9F0430024A1B0164E0094CB
:1002B0007C22214601A803F0D9FD3378E94603B337
:1002C000DFF85480114F4D46234618F80320284686
:1002D000394603F0D3FD01343278E3B29A4205F196
:1002E0000305F2D80A4B0B481A889B782A80AB701A
:1002F0004946802200F0E2FE0023337021B0BDE8C1
:10030000F0834D46EEE700BF180100209849000831
:10031000A0490008E4010020D800002000000000EF
:1003200010B598B04422002106A803F09FFD0023D9
:100330004FF40070CDE90133CDE90333059302F0AA
:1003400049FC08B172B6FEE79FED157B4FF4807152
:1003500010220223CDE9091206A801210A22CDE9C3
:100360001033069316938DED147B1291139201F0C6
:100370000FFC034608B172B6FEE704210F240322E6
:100380000DEB0100CDE90142CDE90333059301F006
:10039000EDFE08B172B6FEE718B010BDAFF30080F5
:1003A000070000000200000080B501F015FBFFF718
:1003B000B7FF03F01BFA03F099FC03F069FA03F0AE
:1003C000BFFB4FF090434FF4FA605A6942F48062E9
:1003D0005A615A6942F020025A6101F027FB1F4915
:1003E0001F4A0B783F2003F10109D05403F10208A2
:1003F000DF1C1E1D5D1D03F1060E03F1070C03F14A
:1004000008045FFA89F909330B705FFA88F87D23D5
:1004100002F80930FFB2522302F80830F6B2BF23C7
:10042000D355EDB2012393555FFA8EFE5FFA8CFC33
:10043000E4B2F72353550021E92302F80E300948AE
:1004400002F80C10115500F0FFF90648064C00F0B8
:1004500041F9204603F01EF9FBE700BF940000209D
:1004600098000020940100202401002072B6FEE7CD
:10047000FEE700BFFEE700BFFEE700BFFEE700BFEC
:10048000FEE700BF704700BF704700BF704700BF66
:1004900001F0BABA014800F039BB00BF9401002056
:1004A000014800F055BE00BFE4010020014802F001
:1004B00043BD00BF240100200A4B1A6E42F0010226
:1004C0001A661A6E82B002F001020092009A9A6DCA
:1004D00042F080529A659B6D03F080530193019B1B
:1004E00002B0704700100240036A23F00103036268
:1004F000036A70B4446882690D6822F4803222F085
:1005000073022A438D6823F002032B43134DA84244
:100510000FD005F50065A8420BD005F54065A8424F
:1005200007D005F58065A84203D005F58065A8428F
:100530000DD1CD6823F008032B43D1E9056524F4E0
:10054000407446EA050C23F004034CEA04044968AD
:100550004460826170BC416303627047002C0140BB
:10056000036A23F480730362036A70B44468C26947
:100570000D6822F4803222F073022A438D6823F43E
:10058000007343EA0523154DA84210D005F5006518
:10059000A8420CD005F54065A8420FD005F580654E
:1005A000A8420BD005F58065A8420FD106E0CD68C2
:1005B00023F4006343EA052323F48063D1E905654E
:1005C00024F4405446EA050C44EA0C14496844609B
:1005D000C26170BCC1630362704700BF002C014060
:1005E000002872D070B590F83D30044603F0FF0249
:1005F000002B65D02268364EA569E0686168022349
:1006000084F83D30B242136849D0B2F1804F1CD01B
:10061000A6F59436B24218D006F58066B24214D0E0
:1006200006F58066B24210D006F59436B24236D056
:1006300006F54066B24236D006F58066B24232D048
:1006400006F58066B24208D12DE0A66823F070035B
:100650003343266923F44073334323F080032B4351
:100660001360D06291620123536184F8483084F8AA
:100670003E3084F83F3084F8403084F8413084F8CC
:10068000423084F8433084F8443084F8453084F8AC
:10069000463084F8473084F83D30002070BDA668AD
:1006A00023F070033343266923F44073334323F06C
:1006B00080032B431360D062916263691363D2E7B6
:1006C00080F83C2003F0BEFA94E70120704700BF99
:1006D000002C014090F83D30012B26D103681949C8
:1006E000022280F83D20DA688B4242F00102DA6093
:1006F0001DD0B3F1804F1AD0134A934217D002F5A0
:100700008062934213D002F5806293420FD002F5CB
:10071000943293420BD002F54062934207D01A689C
:1007200042F0010200201A6070470120704799686A
:10073000064A0A40062A02D0B2F5803FEFD10020D7
:10074000704700BF002C014000040040070001007A
:10075000704700BF002872D070B590F83D30044655
:1007600003F0FF02002B65D02268364EA569E068D1
:100770006168022384F83D30B242136849D0B2F177
:10078000804F1CD0A6F59436B24218D006F580668C
:10079000B24214D006F58066B24210D006F5943607
:1007A000B24236D006F54066B24236D006F58066D3
:1007B000B24232D006F58066B24208D12DE0A6687A
:1007C00023F070033343266923F44073334323F04B
:1007D00080032B431360D06291620123536184F83C
:1007E000483084F83E3084F83F3084F8403084F854
:1007F000413084F8423084F8433084F8443084F83F
:10080000453084F8463084F8473084F83D30002085
:1008100070BDA66823F070033343266923F4407348
:10082000334323F080032B431360D06291626369EA
:100830001363D2E780F83C20FFF78AFF94E701209A
:10084000704700BF002C014010290AD8DFE801F0F2
:10085000590909095F090909670909096C090909A1
:10086000750090F84330012B4FD110290AD8DFE8EA
:1008700001F08B090909520909097409090970096C
:1008800009096C00022380F8433003680122186ACA
:1008900001F01F0102FA01F120EA01001862186A52
:1008A0003B4A0143934219625BD002F500629342D6
:1008B00065D002F54062934261D002F580629342B6
:1008C0005DD002F58062934259D0B3F1804F4CD095
:1008D000304A934249D002F58062934245D002F5F6
:1008E0008062934241D002F5943293423DD002F5AA
:1008F0004062934239D01A6842F0010200201A6027
:10090000704790F83E30012B3ED00120704790F8A0
:100910003F30012BF9D1022380F83F30B5E790F842
:100920004030012BA1D0F0E790F84130013B18BFD7
:100930000123002B99D00120704790F84230013BF1
:1009400018BF0123002B90D0F5E7022380F8423036
:100950009BE7022380F8413097E7022380F840307C
:1009600093E75A6C42F400425A6499680A4A0A4072
:10097000062A02D0B2F5803FBDD1002070475A6CE4
:1009800042F400425A64A0E7022380F83E307CE73C
:10099000002C0140000400400700010090F83C30AA
:1009A000012B73D0024630B40223046882F83D3034
:1009B000012082F83C00A5684F4B2B40A3600B68D8
:1009C000602B65D024D8402B7CD04BD9502B17D12D
:1009D0004B68CD68216A21F00A011943236A23F08C
:1009E00001032362A36923F0F00343EA0513A36123
:1009F0002162A36823F0700343F057030020A36033
:100A00000121002382F83D1082F83C3030BC704751
:100A1000B3F5805F38D0B3F5005F10D1D1E9015351
:100A2000A0682B43CD6820F47F4143EA05230B43A4
:100A3000A360A36843F480430020A360E0E7702B29
:100A4000DED1D1E90153A0682B43CD6820F47F416A
:100A500043EA05230B43A360A36843F07703002018
:100A6000A360CDE7202B02D00AD9302BC8D1A168D2
:100A700021F070010B4343F007030020A360BFE7A0
:100A800033F01001BCD1F2E70020B9E70220704733
:100A9000236A4868CD6823F010032362A169236AA2
:100AA00021F4704123F0A00343EA001341EA053129
:100AB000A1612362A36823F0700343F06703002061
:100AC000A3609DE74B68CD68216A21F00A011943B4
:100AD000236A23F001032362A36923F0F00343EAAE
:100AE0000513A3612162A36823F0700343F0470359
:100AF0000020A36084E700BF8800FEFF704700BFAE
:100B0000704700BF704700BF704700BF03681A6995
:100B1000910710B5044602D5DA68920768D41A69BD
:100B2000520702D5DA6850074FD41A69110702D567
:100B3000DA68120737D41A69D00602D5DA68D10606
:100B40001ED41A69D20702D5DA68D00769D41A69A7
:100B5000110602D5DA6812066BD41A69D00502D5DF
:100B6000DA6811066DD41A69520602D5DA685006A1
:100B70006FD41A69910602D5DA68920649D410BD7D
:100B80006FF01001082219612277DB6913F4407FAE
:100B900020466FD1FFF7B2FF2046FFF7B3FF0022D8
:100BA00023682277CDE76FF00801042219612277CC
:100BB000DB699B0720465AD1FFF7A0FF2046FFF7CD
:100BC000A1FF002223682277B5E76FF0040102221B
:100BD000196122779B6913F4407F204644D1FFF7C7
:100BE0008DFF2046FFF78EFF0022236822779CE7C7
:100BF0006FF002010122196102779B69990730D1D8
:100C0000FFF77CFF2046FFF77DFF00222368227755
:100C100085E76FF0200220461A61BDE8104000F021
:100C2000F9B96FF001021A61204603F029F8236830
:100C30008DE76FF080021A61204600F0EDF923681D
:100C40008BE76FF480721A61204600F0E7F92368A1
:100C500089E76FF040021A612046FFF755FF2368CD
:100C600087E7FFF74DFFD0E7FFF74AFFBCE7FFF745
:100C700047FFA6E7FFF744FF91E700BF036A23F0B1
:100C800010030362036A70B4446882690D6822F03D
:100C9000807222F4E64242EA05228D6823F02003A6
:100CA00043EA0513144DA84210D005F50065A8428B
:100CB0000CD005F54065A8420FD005F58065A84227
:100CC0000BD005F58065A8420FD106E0CD6823F072
:100CD000800343EA051323F04003D1E9056524F4BA
:100CE000406446EA050C44EA8C0449684460826129
:100CF00070BC816303627047002C014090F83C3067
:100D0000012B00F02F81012370B504460D4680F8B9
:100D10003C30142A16D8DFE812F05F0015001500E9
:100D2000150074001500150015008A001500150047
:100D300015009F00150015001500E30015001500B3
:100D400015001B000022012384F83C20184670BDCA
:100D500002682E68136A23F480131362136A5068C2
:100D6000516D21F0807121F4E04141EA0621AE6825
:100D700023F4001343EA06537C4EB2420FD006F52B
:100D80000066B2420BD006F54066B24207D006F5C7
:100D90008066B24203D006F58066B24204D16E6925
:100DA00020F4802040EA8620506051656968D16552
:100DB0001362536D286943F400635365516D21F448
:100DC00080615165516D41EA002151650022002387
:100DD00084F83C20184670BD0068FFF785FB8369E6
:100DE000296943F008038361826922F00402826169
:100DF00082690A4382610022002384F83C2018465D
:100E000070BD0068FFF73AFF8369296943F4006306
:100E10008361826922F480628261826942EA0122EE
:100E200082610022002384F83C20184670BD0068CF
:100E3000FFF796FBC369296943F00803C361C269E0
:100E400022F00402C261C2690A43C2610022002387
:100E500084F83C20184670BD02682E68136A23F49B
:100E600080531362136A5068D16921F0807121F4B4
:100E7000E64141EA0621AE6823F4005343EA063313
:100E80003A4EB2420FD006F50066B2420BD006F5DC
:100E90004066B24207D006F58066B24203D006F53E
:100EA0008066B24204D16E6920F4804040EA861028
:100EB0005060D161696811641362D369286943F491
:100EC0000063D361D16921F48061D161D16941EAC4
:100ED0000021D1610022002384F83C20184670BD17
:100EE00002682E68136A23F480331362136A506811
:100EF000516D21F4803121F070013143AE6823F44B
:100F0000003343EA0643194EB2420FD006F500669D
:100F1000B2420BD006F54066B24207D006F58066B5
:100F2000B24203D006F58066B24204D16E6920F465
:100F3000803040EA0620506051656968916513620F
:100F4000536D286943F008035365516D21F0040186
:100F50005165516D014351650022002384F83C2006
:100F6000184670BD02231846704700BF002C014090
:100F700090F83C30012B46D070B40368234E022217
:100F800080F83D20B3425A680D689C6829D006F568
:100F90000066B3422ED022F070022A43B3F1804F94
:100FA0005A6010D01A4A93420DD002F580629342E3
:100FB00009D002F58062934205D0B34203D002F516
:100FC0009A32934204D18A6824F0800414439C60CE
:100FD0000023012280F83D2080F83C3070BC184688
:100FE00070474E6822F47002324322F070022A43A6
:100FF0005A60E8E74E6822F47002324322F0700231
:1010000015435D60DFE70220704700BF002C014000
:1010100000040040704700BF704700BF704700BF2A
:10102000836F212B00D07047B0F8523002689BB21A
:1010300083B952E8003F23F0800342E800310029E1
:10104000F7D152E8003F43F0400342E80031002965
:10105000F7D17047C16C31F8023BC3F30803138525
:10106000B0F85230C164013B9BB2A0F852307047D7
:10107000836F212B00D07047B0F8523002689BB2CA
:1010800083B952E8003F23F0800342E80031002991
:10109000F7D152E8003F43F0400342E80031002915
:1010A000F7D17047C16C11F8013B1385B0F852308D
:1010B000C164013B9BB2A0F852307047836F202B74
:1010C00029D131B32AB390F87430012B23D083682F
:1010D00010B4B3F5805F4FF00004C1644FF02101FC
:1010E000A0F85220A0F85020C0F88040816714D0AA
:1010F0000D4B02688366002180F8741052E8003FAF
:1011000043F0800342E800300028F7D15DF8044B3B
:10111000704701207047022070470169024B034A63
:10112000A14208BF1346E4E771100008211000082F
:10113000704700BF704700BF08B5806A0023A0F861
:101140005A30A0F85230FFF7F5FF08BD704700BFD6
:101150000368DA69196840F60F0C12EA0C0F70B5D3
:101160009D6804464ED1960602D58E0600F1E380B6
:10117000206E012824D0D60202D5680200F1E0805A
:10118000160614D4500601D54A0600D470BD53E8A3
:10119000002F22F0400243E800210029F7D120224D
:1011A0000023A267A3662046FFF7C2FF70BD0D06AD
:1011B000E8D5A36E002BE9D02046BDE87040184763
:1011C000D606D8D5C806D6D510221A629A68510616
:1011D00040F1D380206F01684A6892B2002AD5D0CE
:1011E000B4F858509542D1D9A4F85A200A6892060A
:1011F00040F1F780B4F85A30E91A204689B2FFF777
:10120000A5FF70BD924805F0010608403043AFD0FD
:10121000D50709D5C80507D501201862D4F8800084
:1012200040F00100C4F8800095077FD58EB1022000
:101230001862D4F8800040F00400C4F88000500721
:1012400007D504201862D4F8800040F00200C4F8EA
:10125000800010070BD501F02000304307D0082094
:101260001862D4F8800040F00800C4F88000160529
:101270000AD54D0108D54FF400601862D4F88000FB
:1012800040F02000C4F88000D4F8800000283FF42B
:101290007DAF900606D5890604D5626E12B1204650
:1012A00090472368D4F880109A6801F0280102F072
:1012B000400252EA010500F0C48053E8002F22F4F6
:1012C000907243E800210029F7D103F1080252E8A7
:1012D000002F22F0010203F1080040E8002100295C
:1012E000F3D1226E012A33D000222021E167226649
:1012F000996862664A063CD503F1080252E8002F5D
:1013000022F0400203F1080040E800210029F3D157
:10131000206F70B34F4B836301F02EFC00283FF425
:1013200035AF206FBDE87040836B1847550790D5E7
:10133000002E86D18DE7436E002B7FF43EAF25E76C
:101340004FF4801220461A62BDE8704000F01CBBCA
:1013500053E8002F22F0100243E800210029C3D0F7
:1013600053E8002F22F0100243E800210029EFD1BA
:10137000BAE72046FFF7DEFE70BDB4F85A10B4F8A5
:101380005A20B4F8580092B289B2002A3FF4FEAE57
:10139000411A89B200293FF4F9AE53E8002F22F434
:1013A000907243E800200028F7D103F1080252E8C8
:1013B000002F22F0010203F1080545E80020002873
:1013C000F3D12022E2676066206653E8002F22F006
:1013D000100243E800200028F7D12046FFF7B6FEB0
:1013E00070BD53E8002F22F4807243E800210029E9
:1013F000F7D103F1080252E8002F22F0010203F1B5
:10140000080545E800210029F3D103F1080252E85C
:10141000002F22F0400203F1080545E800210029D1
:10142000F3D12022E267216653E8002F22F0100258
:1014300043E800210029F7D101F078FBB4F85850B7
:10144000D8E62046FFF776FEC4F8805070BD00BF96
:10145000200100043911000838B504460368826889
:10146000006961691D6802430A43E0699F490243BC
:1014700029400A431A605A68E16822F440520A433C
:101480009B495A608B42A269996871D0256A21F400
:1014900030612A430A4397499A608B4224D0964A86
:1014A000934243D0954A934200F0D780944A9342A6
:1014B00000F0A180934A934211D1934BD3F8883026
:1014C00003F44073B3F5007F00F0FF8000F2BE80AC
:1014D000002B00F0DC80B3F5807F00F099800120C4
:1014E0000022C4E9192238BD874BD3F8883003F0B5
:1014F0000303013B022B78D9B0F5004F00F0F080D8
:1015000000F0DEFE002848D062684FF6EF7100EB75
:101510005200B0FBF2F2A2F110038B42DFD8236835
:10152000DA600022C4E91922002038BD764B774AE0
:10153000D3F8883003F00C03D35CB0F5004F6DD0C6
:10154000082BCCD801A252F823F000BF5516000892
:1015500001150008D1160008DF140008171600084E
:10156000DF140008DF140008DF1400087F160008ED
:1015700021F4306164480A439A60D0F8883003F45B
:101580004063B3F5006F00F080800BD883B3B3F5F0
:10159000806FA4D100F0A2FA48B90022C4E9192250
:1015A000002038BDB3F5406F99D14FF40040626818
:1015B00002EB4203834292D8B0EB023F8FD8002562
:1015C00053084FF4807C2946E0FB0C3118462B462B
:1015D000FEF72EFE4E4AA0F54071914203463FF6BB
:1015E0007EAF22682846D3607AE74A4AD35CA4E7F4
:1015F00000F054FED0E7444BD3F8883003F0C0032A
:10160000802B62D03ED8002B41D0402B7FF467AFB7
:10161000B0F5004F5ED000F061FA73E7082B3FF69B
:101620005EAF01A252F823F095160008E1160008FB
:10163000E7160008DF140008D5160008DF140008BC
:10164000DF140008DF140008DB160008B3F5407F44
:1016500012D044E700F022FE54E72B4BD3F8883039
:1016600003F03003202B30D003D883B1102BCFD020
:1016700035E7302B7FF433AFB0F5004F2DD04FF46A
:10168000004041E7C02BF7D029E723488FE7B0F5AA
:10169000004FDFD100F002FE00283FF47EAF430090
:1016A00062684FF6EF7103EB5203B3FBF2F3A3F161
:1016B00010028A423FF613AF23F00F02216892B264
:1016C000C3F342031343CB6067E7B0F5004F0AD082
:1016D000114819E700F002FADEE74FF48033DFE744
:1016E00000F0EEFDD8E70D4BDAE700BFF369FFEF3E
:1016F00000800040003801400044004000480040A5
:10170000004C00400050004000100240A849000872
:10171000FFFC0F00A44900080024F4000048E80181
:10172000436ADA0710B406D50168846A4A6822F46D
:10173000003222434A609C0706D50168C46A4A68A1
:1017400022F4803222434A60590706D50168046BAF
:101750004A6822F4802222434A601A0706D50168AB
:10176000446B4A6822F4004222434A60DC0606D5F4
:101770000168846B8A6822F4805222438A60990649
:1017800006D50168C46B8A6822F4005222438A603D
:101790005A0609D50168046C4A6822F48012224373
:1017A000B4F5801F4A600BD01B0606D50268816C19
:1017B000536823F400230B4353605DF8044B7047D8
:1017C0004A68446C22F4C00222434A60ECE700BF3E
:1017D0002DE9F843DDF82080046807460E461546DB
:1017E0009946B8F1FF3F0AD1E36936EA03030CBF1B
:1017F000012300239D42F7D00020BDE8F883E26971
:1018000036EA02020CBF01230023AB42F4D100F000
:1018100007F9A0EB0900404531D83C682246B8F1F1
:10182000000F2DD023685807DBD5E3691905D8D5FB
:101830004FF40063236254E8003F23F4D07344E87C
:10184000003139B152E8003F23F4D07342E800314F
:101850000029F7D102F1080353E8003F23F0010308
:1018600002F1080040E800310029F3D12023BB67D2
:1018700087F87410FB670320C7F88030BDE73A682B
:1018800052E8003F23F4D07342E800310029F7D139
:1018900002F1080353E8003F23F0010302F10800BE
:1018A00040E800310029F3D12023BB6787F874108A
:1018B000FB670320A1E700BF002862D070B5836FEB
:1018C00082B00446002B49D022682423A367136802
:1018D00023F0010320461360FFF7BEFD01283AD034
:1018E000636A002B33D12368596821F49041596011
:1018F000996821F02A0199601968002541F00101D9
:101900001960C4F8805000F08BF823681A68120739
:1019100006460CD41B685B0725D400232022A2674F
:1019200084F87430E2671846236602B070BD6FF029
:101930007E4300932A4603464FF400112046FFF7EA
:1019400047FFE0B923681B685B070CD4E5E7204636
:10195000FFF7E6FEC7E7012002B070BD80F87430E3
:1019600002F0E2F9B0E76FF07E43009300223346C5
:101970004FF480012046FFF72BFF0028CDD0032035
:10198000D3E70120704700BF704700BF38B50F4B49
:101990001B780BB9012038BD0D494FF47A7205460A
:1019A000B2FBF3F30868B0FBF3F001F0B1F90446C1
:1019B0000028EFD10F2DEDD8024629464FF0FF3019
:1019C00001F05CF9034B20461D6038BD000000208B
:1019D00008000020040000200A4A136843F48073C2
:1019E00010B50320136001F037F90020FFF7CEFF98
:1019F00010B10124204610BD0446FEF75DFD2046CF
:101A000010BD00BF00200240034A044B11681B7840
:101A10000B441360704700BF1C0100200000002031
:101A2000014B1868704700BF1C01002038B5044600
:101A3000FFF7F6FF631C054602D0044B1B781C44DD
:101A4000FFF7EEFF431BA342FAD338BD000000208E
:101A500030B5204DAB6DDB0083B004461CD501F0E2
:101A6000B1F8B0F5007F29D0802C13D82FD0A4F185
:101A70007004B4FA84F4640917490B6823F007036F
:101A800023430B60086800F00700001B18BF01200B
:101A900003B030BD0324EFE7AB6D43F08053AB657B
:101AA000AB6D03F080530193019B01F08BF8AB6D9C
:101AB000B0F5007F23F08053AB65D5D1802C04D9DD
:101AC000A02C8CBF02240124D6E70024D4E70224F2
:101AD000D2E700BF0010024000200240284A93686D
:101AE000D26813F00C0308D00C2B38D0042B34D060
:101AF000082B244818BF00207047214A11680907A5
:101B000054BFD2F8942012681F4954BFC2F3032275
:101B1000C2F3031251F8220003B30C2B2DD1184B42
:101B2000DB6803F00303022B25D0164A032B08BF02
:101B30001046134BD968DA68DB68C3F34163C2F31C
:101B40000622C1F30211013300FB02F201315B00F6
:101B5000B2FBF1F2B2FBF3F070470C48704702F0B1
:101B60000302012AC9D0064BDB6803F00303022BF2
:101B70004FF00000D9D10548DBE70020704700BFD7
:101B80000010024000127A00D04900080024F4003E
:101B9000002800F008822DE9F0438A4A036895681E
:101BA000D6680446D80683B005F00C0506F0030697
:101BB0002ED5002D00F00D810C2D00F00781A369BA
:101BC000804F002B00F07E813B6843F001033B60B7
:101BD000FFF726FF804606E0FFF722FFA0EB080094
:101BE000022800F27F813B689B07F5D53B6843F0F4
:101BF00008033B603B68226A23F0F00313433B6019
:101C00007B68E26923F47F4343EA02237B60236815
:101C1000D90700F1AD80990723D5042D00F042814A
:101C20000C2D00F03C81E368664E002B00F07581BE
:101C3000336843F480733360FFF7F2FE074605E034
:101C4000FFF7EEFEC01B022800F24C8133685B05F3
:101C5000F6D57368226923F0F85343EA0263736090
:101C60002368190719D56369564E002B00F00381CC
:101C7000D6F8943043F00103C6F89430FFF7D0FE55
:101C8000074605E0FFF7CCFEC01B022800F22A81C0
:101C9000D6F894309A07F5D5236858073ED5494BB6
:101CA0009A6DD10000F137819A6D42F080529A65A9
:101CB0009B6D03F080530193019B0126424F3B68CB
:101CC000DA0540F17281A368012B00F03881052B01
:101CD00000F0F9813B4FD7F8902022F00102C7F8BD
:101CE0009020D7F8902022F00402C7F89020002B13
:101CF00040F02C81FFF794FE41F28839804606E0DF
:101D0000FFF78EFEA0EB0800484500F2EB80D7F805
:101D100090309907F4D4002E40F05E81A36A1BB383
:101D2000022B00F072810C2D00F09580254B1A6873
:101D300022F080721A601A6812F0205F00F047816A
:101D4000204CE36823F0887323F48033E360FFF7CB
:101D500067FE054605E0FFF763FE401B022800F220
:101D6000C18023689B01F6D4002003B0BDE8F08356
:101D7000082D76D00C2D72D06368B3F5803F00F04B
:101D8000B580B3F5A02F00F033810E4F3A6822F4EE
:101D900080323A603A6822F480223A60002B40F0A8
:101DA000AA80FFF73DFE804606E0FFF739FEA0EB74
:101DB0000800642800F296803B689803F5D42368F5
:101DC00029E700BF0010024000700040012E7FF4A0
:101DD000F6AE9B4B1B6899073AD4994B206A1A6858
:101DE000120756BFD3F894301B681B0903F0F003A9
:101DF000984200F2C080924B1A6842F008021A60C2
:101E00001A6822F0F00202431A605A68E16922F46B
:101E10007F4242EA01225A60002D00F0E380FFF782
:101E20005DFE874B874A9B68C3F30313D35C864AE6
:101E300003F01F0320FA03F31068844A1360FFF7CE
:101E4000A5FD002891D12368D9077FF5E4AE8FE77F
:101E5000A369002BC1D1012003B0BDE8F083032E9C
:101E60008AD1774A126892037FF5D5AE6268002A5C
:101E70007FF4D1AEEFE7D6F8943023F00103C6F833
:101E80009430FFF7CDFD074604E0FFF7C9FDC01B06
:101E9000022827D8D6F894309B07F6D4FCE6022E09
:101EA0007FF4C1AE664A1268520502D5E268002A84
:101EB000D1D0634920694A6822F0F85242EA0062B0
:101EC0004A60CEE63B6823F001033B60FFF7A8FDC4
:101ED00080463B689807B6D5FFF7A2FDA0EB080047
:101EE0000228F6D9032003B0BDE8F083544A1368F2
:101EF00043F480331360FFF793FDDFF84481074616
:101F000004E0FFF78DFDC01B6428EBD8D8F8003043
:101F10009B03F6D553E70026D0E6336823F480739D
:101F20003360FFF77DFD074604E0FFF779FDC01B36
:101F30000228D7D833685805F7D4236891E6404A79
:101F4000D2F8903043F00103C2F89030FFF768FDFB
:101F5000DFF8EC80074641F2883904E0FFF760FDC6
:101F6000C01B4845BED8D8F890309807F6D5002E4B
:101F70003FF4D4AE30E0FFF76BFD00287FF46BAF89
:101F80002F4B1A6842F008021A601A68216A22F080
:101F9000F0020A431A605A68E16922F47F4242EA79
:101FA00001225A603BE7012070473B6843F480738D
:101FB0003B60FFF735FD80463B68DB053FF583AEB0
:101FC000FFF72EFDA0EB08000228F5D98AE7DA68B2
:101FD00022F00302DA60B3E6194A936D23F08053CE
:101FE00093659BE6FFF734FD00283FF418AF32E716
:101FF00003F18043A3F53C331A6842F480221A604F
:102000001A6842F480321A6075E70D4EE26AF3688E
:1020100003F00301914264D00C2D3FF41CAF084D36
:102020002B685A013FF517AF2B68DB003FF513AF64
:102030002B6823F080732B60FFF7F2FC06460DE05F
:1020400000100240B84900080400002008000020E9
:10205000FFF7E6FC801B02283FF644AF2B689F0188
:10206000F6D4E9683F4BE26A3F4E0B401343D4E994
:102070000C2143EA0123D4E90E01013A43EA021399
:10208000226C0009490843EA40430139520843EAF7
:102090004153013A43EA4263EB602B6843F080739B
:1020A0002B60EB6843F08073EB60FFF7B9FC0446EC
:1020B00005E0FFF7B5FC001B02283FF613AF3368BD
:1020C0009801F6D550E6284BD3F8902042F0040250
:1020D000C3F89020D3F8902042F00102C3F890207A
:1020E00034E7216B03F070020139B2EB011F93D189
:1020F000616B03F4FE42B2EB012F8DD1A26B073A64
:1021000003F4003118BF0122914285D1E26B5208DD
:1021100003F4C001013AB1EB425F7FF47DAF226C62
:10212000520803F0C063013AB3EB426F7FF474AF1F
:10213000336899013FF518AE336843F0807333601C
:10214000F36843F08073F360FFF76AFC044605E030
:10215000FFF766FC001B02283FF6C4AE33689A0105
:10216000F6D501E68C809DF900100240002800F0B1
:102170008180454A136803F007038B422DE9F04143
:102180000D4604460CD2136823F007030B4313607B
:10219000136803F007038B4202D00120BDE8F081F1
:1021A0002368DA073FD4990706D53849A0688A68BA
:1021B00022F0F00202438A6033490A6802F0070203
:1021C000AA4209D90A6822F007022A430A600A686B
:1021D00002F00702AA42E0D15A0706D52B49E0686F
:1021E0008A6822F4E06202438A601B0707D5274A07
:1021F0002169936823F4605343EAC1039360FFF7B6
:102200006DFC224A224C92682249C2F30312034613
:10221000A25C214802F01F02D340BDE8F0410068F3
:102220000B60FFF7B3BB6268184B032A1B6823D00F
:10223000022A1CD02ABB9E07AFD5144EB36823F0E8
:1022400003031343B360FFF7EBFB41F28838074603
:1022500004E0FFF7E5FBC01B404510D8B368626897
:1022600003F00C03B3EB820FF3D123689BE79F03CA
:10227000E3D492E7012070479B01DED48DE7032071
:102280008CE7580589D5D8E70020024000100240AD
:10229000B84900080800002004000020054B064A49
:1022A0009B680649C3F302230868D35C03F01F034D
:1022B000D840704700100240C849000808000020BC
:1022C000054B064A9B680649C3F3C2230868D35CE2
:1022D00003F01F03D840704700100240C8490008AF
:1022E00008000020454AF8B5D5680F46A9070446FE
:1022F000006806D0D16801F0030181424CD0012072
:10230000F8BD022859D0032850D00128F7D112680F
:102310009307F5D53949CA6822F0730242EA0003EF
:102320006268013A43EA0213CB60344D2B6823F014
:1023300080632B60FFF774FB064604E0FFF770FB39
:10234000831B022B3DD82B681A01F7D4A3681A020D
:10235000002F38D12B69E16823F41F3323F4407335
:102360000909134343EA41432B61244D2B6843F091
:1023700080632B60FFF754FB064604E0FFF750FB39
:10238000831B022B1DD82B681B01F7D52B69A26973
:10239000134300202B61F8BD0029B0D0D3686268D8
:1023A000C3F3021301339342A9D1BEE711688D0331
:1023B000B0D412685103A2D5ACE7126856059ED579
:1023C000A8E70320F8BD012F2B690BD0616923F02A
:1023D000C063490823F4FE430139134343EA4163D0
:1023E0002B61C2E7216923F4C003490823F4FE43AB
:1023F0000139134343EA41532B61B6E70010024011
:102400003E4AF8B5D5680F46A9070446006806D0CD
:10241000D16801F0030181424CD00120F8BD0228AF
:1024200059D0032850D00128F7D112689307F5D569
:102430003249CA6822F0730242EA00036268013A34
:1024400043EA0213CB602D4D2B6823F080532B60A1
:10245000FFF7E6FA064604E0FFF7E2FA831B022BD9
:102460003DD82B689A00F7D4A3681A02002F38D100
:102470006B69E16823F41F3323F4407309091343A4
:1024800043EA41436B611D4D2B6843F080532B6041
:10249000FFF7C6FA064604E0FFF7C2FA831B022BD9
:1024A0001DD82B689B00F7D56B6962691343002028
:1024B0006B61F8BD0029B0D0D3686268C3F3021322
:1024C00001339342A9D1BEE711688D03B0D41268DD
:1024D0005103A2D5ACE7126856059ED5A8E70320A4
:1024E000F8BD6B69216923F0C063490823F4FE43FA
:1024F0000139134343EA41636B61C4E700100240B2
:102500002DE9F043036813F4006583B0044616D048
:10251000416EB1F5000F00F0D68100F2188100295C
:1025200000F0A881B1F5800F40F0BC81002120307F
:10253000FFF766FF05462368002D00F0C281D8042E
:1025400040F11681A16EB1F1007F00F0C28100F26E
:102550006F81002900F08881B1F1807F40F0A48173
:10256000002104F12000FFF74BFF23688046B8F1FB
:10257000000F40F06581B349A06ED1F8882022F0A9
:1025800040720243C1F88820990300F1F580DA0710
:1025900008D5AC49A06BD1F8882022F00302024391
:1025A000C1F888209F0708D5A649E06BD1F888209C
:1025B00022F00C020243C1F888205E0708D5A14929
:1025C000206CD1F8882022F030020243C1F8882024
:1025D000180708D59B49606CD1F8882022F0C0020A
:1025E0000243C1F88820D90608D59649A06CD1F8D5
:1025F000882022F440720243C1F888209A0608D548
:102600009049E06CD1F8882022F440620243C1F87E
:1026100088209F0508D58B49E06DD1F8882022F4E9
:1026200040220243C1F888205E0508D58549206E06
:10263000D1F8882022F440120243C1F888205806BD
:1026400008D58049206DD1F8882022F440520243F9
:10265000C1F88820190608D57A49606DD1F888201C
:1026600022F440420243C1F88820DA0508D57549B2
:10267000A06DD1F8882022F440320243C1F88820AE
:102680009F0410D56F49E06ED1F8882022F0406297
:102690000243B0F1006FC1F8882000F0F980B0F17A
:1026A000806F00F032811E0310D56649206FD1F88B
:1026B000882022F040620243B0F1006FC1F8882008
:1026C00000F0EB80B0F1806F00F02981580310D545
:1026D0005C49606FD1F8882022F040620243B0F17B
:1026E000006FC1F8882000F0CE80B0F1806F00F05C
:1026F0000281590410D55348A16FD0F8882022F0E8
:1027000040520A43B1F1805FC0F8882000F0CF80CA
:10271000B1F1005F00F0E4801A0408D54949E06F88
:10272000D1F8882022F080420243C1F88820DB03E0
:1027300009D5444AD4F88010D2F8883023F00043F9
:102740000B43C2F88830284603B0BDE8F083B1F5EA
:10275000400F40F0A7803B48D0F8882022F4400288
:102760000A43C0F88820D8044FF000053FF5EAAED0
:10277000A84699037FF50BAF324B9A6DD20065D511
:102780004FF00009304E336843F480733360FFF735
:1027900047F9074604E0FFF743F9C31B022B61D852
:1027A0003368DB05F7D5B8F1000F40F0C280254E45
:1027B000D4F88420D6F8903013F4407326D0934296
:1027C00024D0D6F89010D6F8903043F48033C6F871
:1027D0009030D6F8903023F48033C6F89030C80794
:1027E00021F44073C6F8903010D5FFF719F941F283
:1027F0008838074604E0FFF713F9C01B404531D87D
:10280000D6F890309907F6D5D4F884200D49D1F840
:10281000903023F440731343C1F89030B9F1000FA6
:1028200004D0084A936D23F0805393652368AEE685
:10283000B1F1407F38D1A846B8F1000F3FF49BAE0C
:10284000454696E700100240007000409A6D42F045
:1028500080529A659B6D03F080530193019B4FF06A
:1028600001098FE70325D9E7201DFFF73BFD23680A
:1028700080467CE60430FFF735FD05462368002DD1
:102880007FF45DAE1DE0CA6842F48012CA6030E792
:10289000CA6842F48012CA6005E7CA6842F480122E
:1028A000CA6013E701254AE60125A84661E702212F
:1028B000201DFFF717FD236800283FF42DAF0546C4
:1028C0002AE7616E47E71C48C26842F48032C26062
:1028D00041E71949CA6842F48032CA60A84646E610
:1028E000022104F12000FFF78BFD236800283FF44C
:1028F00013AF054610E70121201DFFF7F3FC236805
:1029000000283FF4F6AE0546F3E60121201DFFF74F
:10291000E9FC236800283FF4C6AE0546C3E6012162
:10292000201DFFF7DFFC236800283FF4CFAE0546EB
:10293000CCE6454672E700BF001002402DE9F04F9B
:102940000C6885B0002C00F08A80DFF8D0A100234D
:102950004FF0010B88460BFA03FC1CEA040979D0FE
:10296000D8F8045005F003025E000321571EB14061
:10297000012F6FEA010175D9032A40F08580C76AEB
:1029800027EA0C0CC5F3C0079F4047EA0C07C76253
:10299000B240066831400A4315F4403F026059D006
:1029A00057490A6E42F001020A660A6E02F00102FD
:1029B0000392039A23F0030202F1804202F580326F
:1029C00003F003079168BF000F26BE40B0F1904F9F
:1029D00021EA060117D04B4EB04200F081804A4EEA
:1029E000B04200F08180494EB04275D0484EB042AE
:1029F0007ED0484EB0427FD0474EB0420CBF062634
:102A00000726BE4031439160DAF808206FEA0901D9
:102A1000EE0254BF0A4049EA0202CAF80820DAF876
:102A20000C20AF0254BF0A4049EA0202CAF80C2047
:102A3000DAF80420AE0354BF0A4049EA0202CAF899
:102A40000420DAF80020ED0354BF0A4049EA0202EC
:102A5000CAF80020013334FA03F27FF47CAF05B0EA
:102A6000BDE8F08F876807EA010ED8F80C70B74010
:102A700047EA0E078760476827EA0C0CC5F3001782
:102A80009F4047EA0C074760C76807EA010CD8F87F
:102A90000870B74047EA0C07022AC7607FF478AF96
:102AA0004FEAD30C00EB8C0C03F0070EDCF820701F
:102AB0000097D8F810704FEA8E0E07FA0EF70197BC
:102AC0000F2707FA0EFE009F27EA0E0E019F47EA26
:102AD0000E07CCF820705BE70326BE40314392E737
:102AE0000BFA07F739438EE70226BE4031438AE7E7
:102AF0000426BE40314386E70526BE40314382E7C7
:102B0000001002400004004800080048000C004883
:102B1000001000480014004800180048000401405C
:102B20000AB1816170478162704700BF90F825202B
:102B3000022A034606D00422C2630022012083F841
:102B4000242070470168426C086820F00E0008607D
:102B5000086820F0010008604FF0010C196C02F0C9
:102B60001C020CFA02F24A600022002083F825C001
:102B700083F82420704700BF90F82520022A03D054
:102B80000422C263012070470168426C10B50C68D2
:102B900024F00E040C600C6824F001040C6002F0B8
:102BA0001C02046C012101FA02F26260826B80F85F
:102BB0002510002480F8244012B19047204610BD13
:102BC000104610BD024B186800F4C060704700BF8B
:102BD00000700040B0F5007F0ED01C4A136803F46B
:102BE000C063B3F5806F2DD0136823F4C06343F442
:102BF000806300201360704714490B6803F4C063BE
:102C0000B3F5007F1ED00B68114A23F4C06343F470
:102C100000730B6013680F4A322000FB03F348690E
:102C2000A2FB03239B0C400503F1010306D500E042
:102C300023B14A69520503F1FF33F9D4034B5B69B1
:102C40005B0501D4002070470320704700700040EE
:102C50000800002083DE1B430749CA6803024FF6C1
:102C6000FF0003F4E0630240134343F0BF6343F407
:102C70000033CB60704700BF00ED00E01B4BDB680A
:102C8000C3F3022300B5C3F1070EBEF1040F03F135
:102C9000040C28BF4FF0040EBCF1060F1CD9A3F1A1
:102CA000030C4FF0FF3303FA0CF322EA03024FF058
:102CB000FF3303FA0EF321EA030303FA0CF3134381
:102CC0001B010028DBB20ADB00F1604000F5614027
:102CD00080F800335DF804FB00229446E7E7044ADD
:102CE00000F00F00024413765DF804FB00ED00E0F5
:102CF000FCEC00E0002807DB044A4109012300F056
:102D00001F00834042F82130704700BF00E100E01F
:102D10000138B0F1807F10D210B44FF0E023084C9E
:102D200058614FF0F00C84F823C0002207211046B0
:102D30009A615DF8044B196170470120704700BF2C
:102D400000ED00E0034AD2F8883043F47003C2F883
:102D50008830704700ED00E030B583B00023019368
:102D6000002800F0B780456D0446002D00F08E80ED
:102D7000226893689B0005D5936823F0204323F0D5
:102D80003F0393609368DD0019D4604B60481B6873
:102D900091689B09A0FB030321F010419B0921F0DE
:102DA0003F0101335B0041F0805191600193019B31
:102DB0002BB1019B013B0193019B002BF9D193683F
:102DC000D80055D4636D43F010036365A36D0120F3
:102DD0000343A365936813F0040F636D4FD1D906C5
:102DE0004DD4636D23F4817343F0020363659368EC
:102DF000DB0710D44749484B89689B680B43474918
:102E000089680B43DD0706D4454965688B6823F460
:102E10007C132B438B60E568636B94F820102B4385
:102E2000A5682B43657E012943EA453343EA014304
:102E30004BD0A16A21B1E56A01F4707129430B43BB
:102E4000D568384929401943D1609368590723D57B
:102E500093682369012B40D0136B23F00F03136396
:102E6000636D23F0030343F00103636503B030BDDA
:102E7000936813F0040F4FF00000636DAFD0636DE3
:102E8000012043F01003636503B030BD00F040FD46
:102E9000A56584F850506BE793681B07D9D4D168B7
:102EA00094F83030257E21F480415B0021F002014E
:102EB00043EA85330B43D36094F83830012B14D0A8
:102EC000136923F001031361C3E7616A013943EA1F
:102ED0004143AEE7012003B030BD116BE36921F03F
:102EE0000F01013B0B431363BAE71169E36B256CD8
:102EF00021F4FF6121F004012B430B43616C0B4370
:102F0000A16C0B4343F001031361A2E7080000200A
:102F1000632D3E05000004500001045000020450DF
:102F20000003045007C0F0FF0368186C704700BF2F
:102F3000704700BF704700BFF8B503688C4A1D6832
:102F40005E689768A907044607F01F0702D5B20715
:102F500000F19F80690779D5720777D5626DD20637
:102F600003D4626D42F400726265DA6812F4406F55
:102F70001CD1804A934200F0DC80DA68900415D4BA
:102F80001A68110712D59A68520700F1DF805A6853
:102F900022F00C025A60636D23F480736365636DE5
:102FA000DB0403D4636D43F001036365204600F046
:102FB00009FD23680C221A60A8064DD5B1064BD531
:102FC000626DD10603D4626D42F4005262656949B4
:102FD000DA6CD8688B4202F0C00268D0D968D2B9E6
:102FE0008A0100F19E801A68500614D5890212D415
:102FF0009A68120700F1B3805A6822F060025A60A2
:10300000636D23F480536365636DD80503D4636DEA
:1030100043F001036365204600F0DEFB2368602275
:103020001A60290601D5320654D4E80501D5F10508
:103030005BD4AA0501D5B00540D4E90601D5F20656
:103040000FD46D0501D570055BD4F8BD2807B3D545
:10305000310783D4A806B1D46A06E2D57006E0D55C
:10306000AEE7626B32B1002F6CD0414A926812F425
:10307000604F0BD0636D43F480636365A36D43F0D1
:103080000203A3652046FFF755FF236810221A604C
:10309000D7E7436DD80603D4636D43F400636365DB
:1030A000204600F0A1FB236802221A6052E7C121EA
:1030B000F940C90792D43049C96890E7636D43F479
:1030C00080236365204600F08DFB23684FF4007277
:1030D0001A60B2E7636D43F4803363652046FFF7FF
:1030E00027FF236880221A609FE7636D43F4003353
:1030F0006365204600F074FB23684FF480721A6009
:1031000097E7626D42F480426265A26D4FF4806180
:1031100042F00802A26520461960BDE8F84000F0C0
:103120005DBB00F4406001F4005202437FF473AFD2
:1031300059E740F22122FA40D2073FF51EAF0E4A6E
:10314000D2681BE7DA68D707A0D593E7636D43F031
:1031500010036365A36D43F00103A36526E7636D68
:1031600043F010036365A36D43F00103A36552E7C9
:10317000000304500001045000000450F0B590F822
:10318000502083B00346012A4FF00000019000F068
:10319000F8801C68012083F85000A26812F0040235
:1031A00056D14868052840F2938082091F2600F016
:1031B0001F00864002F00C02F6430D6804F1300E49
:1031C000C5F3846C5EF802500CFA00F0F44605EA90
:1031D000060E40EA0E004CF80200A268520745D5E0
:1031E000A2680D68A268D7072E4612D4CF68B14AEC
:1031F000D4F8B00007F0180C22FA0CF2C5F3120C48
:103200002A4020EA0C000243C4F8B020AA4A9742A0
:1032100066D0AA4A164227D0A94AAA4990688E4287
:1032200000F0E0751DD0A8498E4200F0AD80A7499E
:103230008E4219D110F4800016D1A5498C4213D1C9
:10324000916821F0E071294341F48001916003E02D
:103250005A6D42F020025A65002283F8502003B0D4
:10326000F0BD000240F1D1800020F5E7A2680D68B2
:103270001207B7D4E80D8A6800F0040004F11406C0
:10328000C5F3045C02FA0CF70725325805FA0CF571
:1032900022EA05023A433250D1E90456042DE2688D
:1032A00004F1600000F0D980C2F3C102520050F86E
:1032B00025C0884F96400A680CEA070702F0F842DA
:1032C0003A43324342F0004240F825200D6889E736
:1032D0000238032800F29A81DFE800F073787D6BF2
:1032E000BCF1000F7CD095FAA5F2002A00F0F8801E
:1032F000B2FA82F2013202F01F02092A40F2F08093
:1033000095FAA5F2002A00F07281B2FA82F2013237
:10331000920602F0F84295FAA5F0002800F06C81C0
:10332000B0FA80F0013000F01F00012606FA00F02C
:10333000024395FAA5F5002D00F05C81B5FA85F5FC
:10334000013505F01F0503206FF01D0610FB056019
:10335000000540F000700243D50D886804F11406A2
:1033600005F00405C2F3045200FA02F74FF0070C0F
:1033700070590CFA02F220EA02023A4372510E68C6
:1033800047E7022003B0F0BDC1013FF56DAF504AE1
:10339000944204D002F5007294427FF465AF48492C
:1033A0008A6822F0E0722A4342F0807200208A602C
:1033B00052E74FF480724A6000206FF01F0604222B
:1033C000FBE60C2048606FF4F836F6E61220486001
:1033D0006FF4F806F1E6182048606FF0F856ECE656
:1033E000AD0E013505F01F060122AD0605F0F845CA
:1033F000B240092E42EA050206EB460040F29480F4
:103400001E38000540F00070A5E7A2F54072944216
:1034100004D002F5007294427FF426AF28492E486A
:103420008A6822F0E0722A4342F400028A6002684D
:103430002A499209A1FB02129209013202EB4202CF
:1034400092000192019A002A3FF40EAF019A013ACC
:103450000192019A002AF9D106E70D68226E266EC4
:10346000C5F31202C6F38466002A5FD1C5F38462F5
:10347000964200F08880666E666EC6F38466964259
:1034800000F0A3808668866800F10807C6F38466AA
:10349000964200F08880C668C66800F10C07C6F343
:1034A000846082427FF49EAE3A6822F000423A6025
:1034B0000D6897E6FFFF070000007F4000000880CE
:1034C00000030450000052C7000084CB01000080BC
:1034D0000000045000F0FF0308000020632D3E05AB
:1034E00095FAA5F2002A00F08E80B2FA82F201323B
:1034F000920602F0F84295FAA5F0002800F08180CB
:10350000B0FA80F0013000F01F00012606FA00F04A
:10351000024395FAA5F5002D70D0B5FA85F001307B
:1035200000F01F0000EB4000000514E795FAA5F23B
:103530001AB1B2FA82F2964225D0626E666EC6F376
:10354000846695FAA5F21AB1B2FA82F296423CD09C
:103550008268866800F10807C6F3846695FAA5F2CA
:103560001AB1B2FA82F296421DD0C268C26800F166
:103570000C07C2F3846095FAA5F2002A3FF432AE3C
:10358000B2FA82F28DE7226E22F0004222660D68C6
:10359000626E666EC5F31202C6F38466002AD0D14D
:1035A000C5F384626BE73A6822F000423A600D6826
:1035B000C26800F10C07C068C5F31202C0F3846052
:1035C000002AD8D1C5F384626BE7626E22F0004214
:1035D00062660D6882688668C5F3120200F108070A
:1035E000C6F38466002AB9D1C5F3846250E74FF070
:1035F000806290E60848AEE6022099E64FF440105B
:10360000A9E6022084E74FF0806274E70620486054
:103610006FF4F866D1E500BF000050FE03689A68B9
:10362000D20701D5002070479968184A114270B539
:10363000064608D0736D43F010037365B36D012027
:103640000343B36570BD9A68114D2A4042F00102F0
:103650009A60FEF7E5F9336804461A68D00713D478
:103660009A68D10704D49A682A4042F001029A600D
:10367000FEF7D6F9031B022B3368EED91A68D2077E
:10368000D8D51A68D007EBD5002070BD3F00008068
:10369000C0FFFF7F4D4A036870B596689D6815F0BE
:1036A00004055DD190F85030012B044658D0012319
:1036B00080F85030FFF7B2FF002853D1626D2368C5
:1036C00022F4706222F0010242F480726265404A84
:1036D000934206F01F0648D01946626D22F480120C
:1036E0006265626D656912F480521CBFA26D22F0A2
:1036F0000602A2651C221A60002284F850205A6833
:1037000022F01C025A605A68082D0CBF42F00802D1
:1037100042F004025A60626B1AB95A6842F0100211
:103720005A608B4225D040F22122F240D60720D4A5
:10373000626D42F480126265CA6892010FD5626DB3
:1037400022F4405242F480526265082D5A6834D007
:1037500022F040025A605A6842F020025A6070BD5E
:10376000022070BD84F8505070BD1A49002EB4D0AC
:10377000B7E7DA6891010FD5626D22F4405242F446
:1037800080526265082D5A680FD022F040025A60BC
:103790005A6842F020025A609A6822F0004222F0F1
:1037A0003F0242F004029A6070BD22F020025A608B
:1037B0005A6842F040025A60EEE722F020025A6056
:1037C0005A6842F040025A6070BD00BF00030450C6
:1037D0000001045000000450704700BF704700BF54
:1037E000704700BF704700BF704700BF10B500248E
:1037F0008AB0CDE90444CDE90644234B0894D96C42
:1038000041F00401D964D96C01F0040100910099E0
:10381000D96C41F08001D964D96C01F0800101912B
:103820000199D96C41F00101D964D96C01F0010111
:1038300002910299D96C41F00201D964DB6C03F06A
:103840000203224603934FF484614FF09040039BA0
:10385000FFF766F904A94FF400524FF404130B4824
:103860000694CDE90423FFF769F84FF4846201233D
:1038700004A94FF09040CDE90423CDE90644FFF7B9
:103880005DF80AB010BD00BF0010024000080048FB
:1038900010B51C481C490023042286B0C0E904323C
:1038A00003830122CDE90033CDE90233CDE90433AE
:1038B000C0E90013C0E90233C0E90A33C26180F8ED
:1038C000203080F83030436380F83830FFF744FA16
:1038D00088B90E4A00927F220023062403920948E9
:1038E00004226946CDE90143CDE90423FFF746FCF4
:1038F00020B906B010BDFCF7B9FDEAE7FCF7B6FD4C
:1039000006B010BD24010020000204500200300463
:1039100010B50446AAB00021882208A8CDE90211FA
:10392000CDE90411069100F0A1FA234B22689A42D6
:1039300001D02AB010BD4FF480414FF080520223D5
:103940000891269201210822CDE909310B92072125
:103950004FF0807208A8CDE90C13CDE90E32FEF7C6
:10396000CFFD30BB154B1648DA6C42F40052DA64D6
:10397000DA6C02F400520092009ADA6C42F004020F
:10398000DA64DB6C03F004030193002402A9012232
:103990000B23CDE902230494019BFEF7CFFF2246BF
:1039A00021462F20FFF76AF92F20FFF7A3F92AB04D
:1039B00010BDFCF75BFDD5E700020450001002408B
:1039C0000008004830B5524C524883B0FFF7ACFABB
:1039D0002368F3B1012B1CD0022B57D04E4C226828
:1039E000012A25D04D4D2B788BB9022A2BD0032AE2
:1039F0003BD14B4B4B4A19784B48F72904BF042362
:103A000023601378C154082101332970137003B067
:103A100030BD40F6C4139842E0D9444A444B126882
:103A20000221526A21603C4C1A602268012AD9D1D5
:103A30003B4B1B783F2BEAD1384A082102231170F7
:103A4000236003B030BD364909787D2958D0002362
:103A500038496846CDE9003300F010FA082269467B
:103A60003548FDF72BFB03B030BD042AEFD12C4BBA
:103A70002C4A19781378E92934D02B48C1540133E2
:103A80001370082203232A702360C0E740F6C31393
:103A90009842A3D8254B264A1B6812685D6A2749BD
:103AA000AD1A41F288339D42CCBF00250125012289
:103AB0000023226068462A46CDE9003300F0DEF993
:103AC000082269461C48FDF7F9FA154A134910788F
:103AD0000B7845EA40051570002B3FF47FAF013BA2
:103AE0000B707BE7013B012113702160FCF7DAFBCF
:103AF0002B78002B8BD12268012AA8D103B030BDCE
:103B00000821084A29700321216013707FE700BF54
:103B10008C010020240100200C0000202001002046
:103B20002101002018010020D8000020940100206D
:103B3000880100200C4A0008E4010020004A000827
:103B400010B53F4C96B00023CDE90433CDE90633E0
:103B5000CDE90133CDE90E33CDE91033CDE9123390
:103B600003931493A3602361A3614FF080424F231A
:103B7000C4E90023204642F20F73E360FCF730FDF6
:103B800058BB4FF480532E48049304A9FCF706FF5A
:103B900078BB2B48FCF7DEFD40BB0023284801938F
:103BA00001A90393FDF7E4F9E8B99FED217B002219
:103BB000234810920EA98DED0E7B1292FDF79EF810
:103BC00070B922680023B2F1804FCDE90833CDE906
:103BD0000A330C9310D016B010BDFCF747FCD0E7A9
:103BE000FCF744FCEDE7FCF741FCDEE7FCF73EFCAC
:103BF000D3E7FCF73BFCCCE703F1804303F5043348
:103C00009FED0D7BDA6C42F00102DA64DB6C03F0AD
:103C10000103009308A901234FF090408DED087B2C
:103C2000009A0C93FEF78AFE16B010BDAFF3008029
:103C30006000000000000000010000000200000021
:103C4000940100200368B3F1804F00D0704703F562
:103C5000043300B5996D41F0010199659B6D83B006
:103C6000002203F0010301931C201146019BFFF782
:103C700005F81C2003B05DF804EBFFF73BB800BF6C
:103C800030B41449144B0A781B78144893420468E2
:103C90001CD0134803788BB1124D013B01212A78C7
:103CA0009940DBB20A4241F64C512A70037040F64B
:103CB000C41208BF0A46626330BC7047531C0B70C5
:103CC0000949084D8A5C07238021EBE700236363E1
:103CD00030BC704795000020940000209401002023
:103CE00090010020E00100209800002010B50C4851
:103CF0000C4C00234FF4E1310C22C0E90041C0E933
:103D00000233C0E90432C0E90633C0E90833FDF7E5
:103D1000D3FD00B910BDBDE81040FCF7A7BB00BF44
:103D2000E40100200044004010B50446AAB0002180
:103D3000882208A8CDE90211CDE90411069100F00E
:103D400095F8214B22689A4201D02AB010BD022377
:103D500008A80893FEF7D4FB58BB1C4B9A6D42F49D
:103D600000329A659A6D02F400320092009ADA6C81
:103D70009FED117B42F00102DA64DB6C8DED027B7A
:103D80009FED0F7B03F00103019302A907234FF07E
:103D900090408DED047B0693019AFEF7CFFD002243
:103DA00011462620FEF76AFF2620FEF7A3FF2AB061
:103DB00010BDFCF75BFBD0E70C0000000200000028
:103DC000000000000300000000440040001002401A
:103DD000DFF834D0FEF7B6FF0C480D490D4A00233A
:103DE00002E0D458C4500433C4188C42F9D30A4AB0
:103DF0000A4C002301E013600432A242FBD300F01E
:103E000011F8FCF7D1FAFEE7008001200000002045
:103E100078000020684A0008780000207C0200201A
:103E2000FEE7000070B50D4D0D4C641BA41000267C
:103E3000A64209D10B4D0C4C00F0A0FD641BA41050
:103E40000026A64205D170BD55F8043B98470136BF
:103E5000EEE755F8043B98470136F2E7584A000868
:103E6000584A0008584A00085C4A000802440346C1
:103E7000934200D1704703F8011BF9E70EB400B577
:103E80009CB01DAB029006906FF00041094807916D
:103E90000491094953F8042B05910068019302A984
:103EA00000F06AF8029B00221A701CB05DF804EB67
:103EB00003B07047100000200802FFFF70477047F2
:103EC0002DE9F0478E689E4282460C4690461F467A
:103ED00038D88A8912F4906F32D025680969A5EB29
:103EE0000109656905EB450505EBD57501334B44C3
:103EF0006D109D4238BF1D46530531D5294600F04F
:103F000043FB064650B90C23CAF80030A38943F09E
:103F10004003A3814FF0FF30BDE8F08721694A4696
:103F200000F0BEFAA38923F4906343F08003A381D9
:103F3000266165614E44A5EB09052660A5603E46F5
:103F4000BE4200D93E4620683246414600F0B6FAED
:103F5000A3689B1BA3602368334423600020DBE736
:103F60002A4600F06BFB06460028E1D12169504645
:103F700000F0BEFAC7E700002DE9F04F98468B89A4
:103F80001B069DB007460D4614460ED50B6963B956
:103F9000402100F0F9FA2860286120B90C233B6029
:103FA0004FF0FF30D1E040236B61002309932023C1
:103FB0008DF82930CDF80C803023DFF8A8818DF8FA
:103FC0002A304FF0010923469A4613F8012B0AB113
:103FD000252AF9D1BAEB040B0BD05B4622462946C1
:103FE0003846FFF76DFF013000F0AA80099A5A4465
:103FF00009929AF80030002B00F0A28000234FF0C5
:10400000FF32CDE905230AF1010A049307938DF8E5
:1040100053301A935446052214F8011B5148FCF7FB
:10402000B7F8049AD8B9D00644BF20238DF853308E
:10403000110744BF2B238DF853309AF800302A2BF8
:1040400015D0079A544600204FF00A0C214611F86B
:10405000013B303B092B4ED9B0B1079214E0A0EBE5
:10406000080309FA03F313430493A246D2E7039B20
:10407000191D1B680391002BBBBF5B4242F002027B
:1040800007930793B8BF049223782E2B0CD1637843
:104090002A2B35D1039B1A1D1B680392002BB8BF36
:1040A0004FF0FF3302340593DFF8C8A021780322D4
:1040B0005046FCF76DF840B14023A0EB0A0003FA2C
:1040C00000F0049B03430134049314F8011B2648B9
:1040D0008DF828100622FCF75BF8002838D0234B17
:1040E0001BBB039B073323F0070308330393099B90
:1040F0003344099367E70CFB02320C460120A5E725
:1041000000230134059319464FF00A0C204610F89D
:10411000012B303A092A03D9002BC5D00591C3E7FA
:104120000CFB012104460123F0E703AB00932A4670
:104130000F4B04A93846AFF30080421C0646D6D187
:10414000AB895B063FF52CAF09981DB0BDE8F08F39
:1041500003AB00932A46064B04A9384600F07AF8D0
:10416000EBE700BF1D4A0008274A000800000000D6
:10417000C13E0008234A00082DE9F047164699463B
:104180008A680B69DDF820809342B8BF134633601C
:1041900091F8432007460C460AB101333360236887
:1041A000990642BF336802333360256815F006056F
:1041B00006D104F1190AE36832689B1AAB4226DC87
:1041C00094F84320131E226818BF012392062BD4B3
:1041D00004F1430249463846C04701301ED02368E7
:1041E000E568326803F00603042B08BFAD1AA36824
:1041F00022690CBF25EAE57500259342C4BF9B1ACE
:10420000ED1800261A34B5421AD1002008E0012327
:10421000524649463846C047013003D14FF0FF307F
:10422000BDE8F0870135C6E7E1185A1C302081F857
:104230004300224494F8451082F843100233C7E744
:104240000123224649463846C0470130E6D00136B0
:10425000D9E700002DE9FF470F7E0C9D782F91468E
:1042600080460C469A4601F1430207D8622F0AD8CD
:10427000002F00F0D880582F00F0A38004F14205F1
:1042800084F842703AE0A7F16303152BF6D801A138
:1042900051F823F0ED420008014300087D42000878
:1042A0007D4200087D4200087D420008014300086D
:1042B0007D4200087D4200087D4200087D420008E2
:1042C0000D44000831430008EF4300087D42000818
:1042D0007D4200082F4400087D4200083143000859
:1042E0007D4200087D420008F74300082B681A1D34
:1042F0001B682A6004F1420584F842300123A3E0E0
:1043000020682968060601F104030AD50E682B60AF
:10431000002E03DA2D23764284F843305E480A23C8
:1043200019E00E682B6010F0400F18BF36B2EFE7AF
:104330002B682068191D2960010601D51E6802E05E
:104340004606FBD51E8854486F2F0CBF08230A234E
:10435000002184F843106568A560002DA2BF216884
:1043600021F0040121600EB9002D4DD01546B6FB99
:10437000F3F103FB1167C75D05F8017D3746BB42CA
:104380000E46F4D9082B0BD12368DE0708D5236924
:1043900061689942DEBF302305F8013C05F1FF3525
:1043A000521B2261CDF800A04B4603AA214640468D
:1043B000FFF7E2FE01304CD14FF0FF3004B0BDE812
:1043C000F087354881F845702968236851F8046BF7
:1043D00029601D0614D5DF0744BF43F02003236086
:1043E0001EB9236823F0200323601023B0E723685D
:1043F00043F0200323607823284884F84530E3E71E
:10440000590648BFB6B2E6E71546BBE72B682668F3
:104410006169181D286035061B6801D5196002E026
:104420007006FBD51980002323611546BAE72B6877
:104430001A1D2A601D68626800212846FBF7A8FE45
:1044400008B1401B606063682361002384F8433037
:10445000A8E723692A4649464046D0470130ABD0F9
:1044600023689B0713D4E068039B9842B8BF1846A3
:10447000A4E70123324649464046D04701309BD04D
:104480000135E36803995B1AAB42F2DCEBE70025E8
:1044900004F11906F5E700BF2E4A00083F4A00085C
:1044A0000A44914200F1FF3300D1704710B511F872
:1044B000014B03F8014F9142F9D110BD884210B56C
:1044C00001EB020402D98442234607D8431EA142CD
:1044D00008D011F8012B03F8012FF8E70244014638
:1044E0008A4200D110BD13F8014D02F8014DF7E7E3
:1044F00037B5002944D051F8043C0190002BA1F1BC
:104500000404B8BFE41800F0D9F81E4A01981368F3
:1045100033B96360146003B0BDE8304000F0D4B834
:10452000A34208D9256861198B4201BF19685B68ED
:1045300049192160EDE71A465B680BB1A342FAD92D
:1045400011685518A5420BD1246821445418A34280
:104550001160E0D11C685B68536021441160DAE7A8
:1045600002D90C230360D6E7256861198B4204BF8A
:1045700019685B68636004BF491921605460CAE729
:1045800003B030BD6C020020F8B5CD1C25F003054A
:1045900008350C2D38BF0C25002D064601DBA9423D
:1045A00003D90C2333600020F8BD00F087F82149BF
:1045B0000A6814469CB9204F3B6823B9214630460F
:1045C00000F06CF838602946304600F067F8431C6C
:1045D00023D10C233360304600F076F8E3E72368FC
:1045E0005B1B17D40B2B03D923601C44256004E00C
:1045F0006368A2420CBF0B605360304600F064F861
:1046000004F10B00231D20F00700C21ACCD01B1AA6
:10461000A350C9E722466468CCE7C41C24F0030415
:10462000A042E3D0211A304600F038F80130DDD145
:10463000CFE700BF6C020020700200202DE9F0419E
:10464000804614460E4621B9BDE8F0411146FFF7F9
:104650009BBF2AB9FFF74CFF25462846BDE8F081ED
:1046600000F038F88442074602D8B4EB500F12D855
:1046700021464046FFF788FF05460028EDD0BC42A2
:104680002246314628BF3A46FFF70AFF31464046E8
:10469000FFF72EFFE1E73546DFE7000038B5064DAE
:1046A0000023044608462B6000F01CF8431C02D18E
:1046B0002B6803B1236038BD740200200148FFF766
:1046C000FDBB00BF680200200148FFF7F8BB00BF38
:1046D0006802002051F8043C181F002BBCBF0B5887
:1046E000C0187047044A05491368002B08BF0B46E1
:1046F000184410601846704778020020800200209D
:104700002DE9F0478C468E46089E1546044619460C
:10471000002B40F0AF807245B2FA82F743D94FB117
:10472000C7F120030EFA07FC20FA03F3BD4043EA69
:104730000C0CBC404FEA154EA8B2BCFBFEF8230C93
:104740000EFB18CC08FB00F943EA0C43994528D925
:10475000EB1808F1FF3204D2994502D9A8F1020200
:104760002B44A3EB0903B3FBFEFCA4B20EFB1C33EA
:104770000CFB00F044EA0344A04279D92C190CF157
:10478000FF3304D2A04202D9ACF102032C44241A14
:1047900043EA02401EB1FC40002334607360BDE870
:1047A000F0874246DDE702B9FFDEE7B9AEEB020370
:1047B00001214FEA154EA8B2B3FBFEFC220C0EFB02
:1047C0001C330CFB00F842EA034398454ED9EB1822
:1047D0000CF1FF3204D2984502D9ACF102022B440D
:1047E000A3EB0803BFE7C7F120012EFA01F3BD4098
:1047F0000EFA07FE20FA01F141EA0E014FEA154ECA
:10480000AAB2B3FBFEFC0EFB1C300B0C0CFB02F837
:1048100043EA0043984504FA07F423D9EB180CF156
:10482000FF3004D2984502D9ACF102002B44A3EB2F
:104830000803B3FBFEFC0CFB02F80EFB1C328BB230
:1048400043EA024398450FD9EB180CF1FF3104D22B
:10485000984502D9ACF102012B44A3EB080341EACD
:104860000041A6E76046E2E76146F6E76246B7E741
:1048700063468CE7734505D90EB1C6E9000E0021E9
:1048800008468CE7B3FA83F787B9734501D38242B0
:104890000AD8841A6EEB030301209C46002E6AD0CE
:1048A000C6E9004C00217AE73846F7E7C7F1200C4B
:1048B000BB4022FA0CF41C4320FA0CF12EFA0CF344
:1048C0000EFA07FE41EA0E014FEA144900FA07F515
:1048D000B3FBF9F81FFA84FE09FB18300B0C08FB38
:1048E0000EFA43EA00439A4502FA07F23FD9E31869
:1048F00008F1FF3004D29A4502D9A8F102002344FE
:10490000A3EB0A0389B2B3FBF9F809FB183308FBE0
:104910000EFE41EA03418E452BD9611808F1FF33A1
:1049200004D28E4502D9A8F10203214443EA004093
:10493000A0FB0298A1EB0E014145CE46434602D3AF
:1049400006D14D4504D2B9EB020E68EB04030138E1
:104950008EB1B5EB0E0261EB030101FA0CFC22FAF9
:1049600007F34CEA0303F940C6E900319AE74046F1
:10497000C6E74346DAE7314611E70000F8B500BF65
:10498000F8BC08BC9E467047F8B500BFF8BC08BC30
:084990009E4670470000000084
:1049980020253032580000000D0A000004020800EB
:1049A8000010101004101010021010100800000061
:1049B80000000000000000000102030406070809C7
:1049C8000000000001020304A0860100400D03005E
:1049D800801A060000350C0040420F0080841E003B
:1049E80000093D0000127A000024F40000366E0130
:1049F8000048E801006CDC026269743A3A256420D8
:104A080000000000627974655F73746174653A3AF6
:104A180025640D0A00232D302B2000686C4C00659E
:104A280066674546470030313233343536373839D2
:104A38004142434445460030313233343536373805
:084A48003961626364656600D8
:084A5000B0FCFF7F0100000033
:084A58008902000800000000C3
:084A60006502000800000000DF
:104A6800010000001000000000093D0001000000E6
:104A780014000020000000000000000000000000FA
:104A8800000000000000000000000000000000001E
:104A9800000000000000000000000000000000000E
:104AA80000000000000000000000000000000000FE
:104AB80000000000000000000000000000000000EE
:104AC80000000000000000000000000000000000DE
:084AD8000000000000000000D6
:0400000508003DD1E1
:00000001FF
